:100000000C9497030C94DD030C94DD030C94DD0336
:100010000C94DD030C94DD030C94DD030C94DD03E0
:100020000C94DD030C94DD030C94E8260C94BE279D
:100030000C945E1D0C94DD030C94DD030C94DD0325
:100040000C94DD030C94DD030C94DD030C94DD03B0
:100050000C94DD030C94C51D0C94DD030C94DD039E
:100060000C94DD030C94DD030C94DD030C94DD0390
:100070000C94DD030C94DD030C94DD030C94DD0380
:100080000C94DD030C94DD030C94DD030C94DD0370
:100090000C94DD030C94DD036B0471047504780487
:1000A0007C048004840488048D04910495049904DC
:1000B0009C04A004A404A804AC04B10425132513D3
:1000C0005F135F139E13C01352155215021452157D
:1000D000A914A9142015271552154D15B614B614D8
:1000E000B614B614B614B614B614B614B614B614C0
:1000F000B614B614B614B614B614B614C814D8147C
:10010000DF14E614F014E615E615F915F915EF15E8
:10011000F915F915F915E615E615F515F915F91599
:10012000F51527284E283C294E283C299628B92821
:100130003C290F291E2929001E001F002000210034
:100140002200230024002500260027002D002E0079
:1001500031002A004C005400550056002B001400BA
:100160001A000800150017001C0018000C001200EF
:1001700013002F003000000031005F0060006100BC
:100180006700390004001600070009000A000B0090
:100190000D000E000F003300340032000000280074
:1001A0005C005D005E005700E10064001D001B0064
:1001B0000600190005001100100036003700380055
:1001C000E500E500520059005A005B004700E000DE
:1001D000E300E2000000000000002C00000000002E
:1001E0000000E600E4000151500051004F006200A1
:1001F0006300580035003A003B003C003D003E00E3
:100200003F004000410042004300440045004600DA
:10021000490053000100010001000100010001003C
:100220000100005C0100010001000100010001006B
:1002300001000100000001000100010001000100B7
:10024000010001000100010001000100C25CC45C6A
:10025000C65C010001000100010000000100010076
:100260000100010001000100010001000100010086
:10027000C05CC35CC55CC75CBC5CBD5C0100A80025
:10028000A800A90001000100010001000100010017
:100290000100000000000000BE5C00000000000043
:1002A0000100010001000100AA000100010001009D
:1002B0000100010001000100010001000100010036
:1002C0000100010001000100010001000100010026
:1002D0000100010001000100010001000100010016
:1002E0000100010001000100010001000100010006
:1002F00001000000010001000100010001000100F7
:1003000001000100010001000100010001000100E5
:1003100001000100010001000000010001000100D6
:1003200001000100010001000100010001000100C5
:1003300001000100010001000100010001000100B5
:1003400001000100010001000100010001000100A5
:10035000000000000000010000000000000001009B
:100360000100010001000100010001000100010085
:100370006801F000B40078005A006432146432144A
:10038000783C1E1E140A0500000000010101020253
:10039000030405050607090A0B0C0E0F11121415AC
:1003A00017191B1D1F212325282A2C2F31343639DC
:1003B0003B3E414346494C4F5255585A5D61646734
:1003C0006A6D707376797C7F8386898C8F9295981D
:1003D0009B9EA2A5A7AAADB0B3B6B9BCBEC1C4C608
:1003E000C9CBCED0D3D5D7DADCDEE0E2E4E6E8EA6A
:1003F000EBEDEEF0F1F3F4F5F6F8F9FAFAFBFCFDAB
:10040000FDFEFEFEFFFFFFFFFFFFFFFEFEFEFDFD08
:10041000FCFBFAFAF9F8F6F5F4F3F1F0EEEDEBEA9D
:10042000E8E6E4E2E0DEDCDAD7D5D3D0CECBC9C64D
:10043000C4C1BEBCB9B6B3B0ADAAA7A5A29E9B98D5
:1004400095928F8C898683807C797673706D6A67CC
:1004500064615D5A5855524F4C494643413E3B39C1
:100460003634312F2C2A282523211F1D1B1917153F
:100470001412110F0E0C0B0A0907060505040302DE
:100480000201010100000000000000000101010163
:10049000010101010102020202020202020203033F
:1004A000030303030303040404040404050505050E
:1004B00005060606060607070707080808080909CB
:1004C000090A0A0A0A0B0B0B0C0C0C0D0D0D0E0E73
:1004D0000F0F0F1010111111121213131414151500
:1004E00016161717181819191A1A1B1C1C1D1D1E71
:1004F0001F1F2020212222232425252627272829C3
:100500002A2B2B2C2D2E2F2F3031323334353636EB
:100510003738393A3B3C3D3E3F40414243444647F1
:1005200048494A4B4C4D4F50515253555657585AC3
:100530005B5C5E5F606263646667696A6C6D6E7067
:100540007173747678797B7C7E8081838486888AD7
:100550008B8D8F91929496989A9B9D9FA1A3A5A70E
:10056000A9ABADAFB1B3B5B7B9BBBDBFC1C4C6C808
:10057000CACCCFD1D3D6D8DADCDFE1E4E6E8EBEDC4
:10058000F0F2F5F7FAFCFF0A0355004B003700388C
:100590000000001A0355004B0020004B0065007955
:1005A0000062006F006100720064007300000004CC
:1005B00003090409026D00040100A0FA0904000007
:1005C000010301010009211101000122400007057A
:1005D000810308000A090401000103010200092146
:1005E00011010001224D000705820308000A0904D9
:1005F0000200010300000009211101000122360060
:100600000705830308000A09040300010300000032
:10061000092111010001223900070584032000018E
:1006200012011001000000084B554E0002000102AB
:10063000000105010906A101050719E029E71500D8
:1006400025019508750181020508190129059505FF
:10065000750191029501750391010507190029F7AC
:100660001500250195F875018102C005010980A1D9
:100670000185021601002603001A81002A830075F5
:100680001095018100C0050C0901A1018503160127
:1006900000269C021A01002A9C0275109501810017
:1006A000C005010902A1010901A1000509190129DB
:1006B00005150025019505750181029501750381D8
:1006C000010501093009311581257F9502750881E1
:1006D0000609381581257F950175088106050C0AE4
:1006E00038021581257F950175088106C0C0050176
:1006F0000906A101050719E029E71500250195085C
:100700007501810295017508810105081901290506
:100710009505750191029501750391010507190071
:1007200029FF150026FF00950675088100C01124D9
:100730001FBECFEFD0E2DEBFCDBF04B603FE24C0A4
:100740008091DF029091E002A091E102B091E2027B
:100750008730904BA740B04BB9F41092DF02109253
:10076000E0021092E1021092E20214BE84B7877F89
:1007700084BF88E10FB6F894809360001092600007
:100780000FBEE0E0F0EF099511E0A0E0B1E0E8E194
:10079000F6E500E00BBF02C007900D92A434B1074C
:1007A000D9F712E0A4E4B1E001C01D92AF3DB1075A
:1007B000E1F70E941D240C940A2B0C94000008956C
:1007C000089581E0089581FF03C00B9A139A08955C
:1007D0000B981398089581E008950C94E1030E940A
:1007E000D4152FEF84E39CE0215080409040E1F746
:1007F00000C000000C94EB1DFF920F931F93CF934A
:10080000DF938C01FC01C081D1818091B501811100
:1008100013C08281882349F0CE010E941A1BF82E52
:10082000682FCE010E94C01A04C0CE010E94EE1AA9
:10083000F82EBE018F2D04C0CE010E941A1BBE01EE
:100840000E940B06EC01B8010E94ED03882309F415
:1008500090C1B801CE010E94A308882309F489C180
:10086000C33CFCE5DF0741F4F8018281882309F4E9
:1008700080C10E94480C7DC1C43C8CE5D80708F0BB
:10088000E6C0C5319CE5D90708F07DC0C230ECE573
:10089000DE0708F49DC0F8018281882309F490C026
:1008A0000E94591C811102C00E94331C0E94761CB8
:1008B00090E09093D0028093CF02FE01E350FC457C
:1008C000E231F10520F4E45BFF4F0C94BC2A8091E7
:1008D000CF02816003C08091CF0282608093CF02FB
:1008E0004BC08091CF028460F9CF8091CF0213C0BA
:1008F0008091CF028061F2CF8091CF028062EECFF3
:100900008091CF028064EACF8091CF028068E6CFE9
:100910008091CF0284608860E1CF8091CF028E7F8A
:10092000DDCF8091CF028D7FD9CF8091CF028B7F99
:10093000D5CF8091CF0213C08091CF028F7ECECFD2
:100940008091CF028F7DCACF8091CF028F7BC6CF9F
:100950008091CF028F77C2CF8091CF028B7F877F2C
:10096000BDCF9091CF0297FB882780F921E08227A5
:1009700080FB97F99093CF028091CF020E947A1C5E
:100980000E94D415F6C0C03C9CE5D907D9F108F007
:1009900046C0C531DC4579F4F80182818823D1F164
:1009A000C8E8DBE10E94FA1B8A7AB9F185E3FE010F
:1009B00009950E94C71B81E08093480180934901FB
:1009C000C801DF91CF911F910F91FF900C94EB0321
:1009D000C115FCE5DF0741F4F8018281882309F4A1
:1009E000C8C00E94EF03C5C0C130DC4521F7F80143
:1009F0008281882309F4BDC0809157028160809371
:100A00005702B7C0F8018281882309F4B2C00E945E
:100A1000580DAFC0CFE8DBE1C5CF89E2C8CFC13CFC
:100A20008CE5D80741F4F8018281882309F4A1C03C
:100A30000E944E0D9EC0C23CDC4509F0BCCFF801BF
:100A40008281882309F495C00E942F0C92C0C73C74
:100A5000ECE5DE0741F4F8018281882309F489C0BE
:100A60000E94B70C86C0C83CFCE5DF07D8F4F8014B
:100A70008281C53CFCE5DF0731F4882309F479C0A5
:100A80000E94820C76C0C63CDC4530F4882309F411
:100A900070C00E94670C6DC0882309F46AC00E9470
:100AA0009C0C67C0C93CECE5DE0739F5F801828192
:100AB000882361F0109249010E94901D9093470194
:100AC0008093460180E20E94D51253C08091490173
:100AD00081110FC080914601909147010E949C1D99
:100AE000883C910530F487E20E94971187E20E94CA
:100AF000741280E20E94DC123CC0C93CFCE5DF07B6
:100B000018F5F8018281882351F0109248010E9463
:100B1000901D909345018093440182E0D4CF809151
:100B2000480181110FC080914401909145010E94BC
:100B30009C1D883C910530F486E20E94971186E264
:100B40000E94741282E0D6CFCC3C8CE5D80731F4F9
:100B5000F8018281882369F080E009C0CD3CDC4542
:100B600009F029CFF8018281882319F082E00E94E0
:100B7000B12480E0DF91CF911F910F91FF900895F4
:100B80000C94F108269A2E988FEF9FEF9093870090
:100B90008093860082E28093800089E180938100C7
:100BA0000C94A7210E94C2050C94EF0881110AC081
:100BB000809180008F7D8093800010928B00109236
:100BC0008A000895833041F4809180008062809390
:100BD00080008FEF9FEF12C0909180009062909301
:100BE000800023E030E0281B3109220F331F8FEFF4
:100BF0009FEF02C0969587952A95E2F790938B0018
:100C000080938A0008950C94E3030C94030680E01B
:100C100090E00895089593E1799FF00111249FE5F4
:100C2000899FE00DF11D1124E60FF11DEE0FFF1F4E
:100C3000EA5CFE4F859194910895880F991F805921
:100C40009C4FFC01859194910895CF93DF9323E10C
:100C5000729FF00111249FE5899FE00DF11D112481
:100C6000E60FF11DEE0FFF1FEA5CFE4F8591949198
:100C70000E94F907EC01811521E5920708F044C0B4
:100C8000C11580E5D80708F01FC1C83ED10510F591
:100C9000C03ED10508F0A9C1C83AD10578F4C53ADB
:100CA000D10508F09CC0C130D10509F49EC108F4FB
:100CB00055C1C430D10508F098C150C1CD3BD10514
:100CC00008F498C0C03CD10508F448C1CE01805C4E
:100CD0009109E9C0C11590E3D90780F4C11520E25C
:100CE000D20708F0DEC0C03FD10508F437C1CF3FBE
:100CF000D10511F008F079C1D06577C1C11580E444
:100D0000D80708F0DEC0D3C0C11596E5D90768F54D
:100D1000C11525E5D20708F00DC1C11583E5D80737
:100D200050F4C11592E5D90708F0EAC0DC2FCC27B2
:100D3000C16FD06A5AC1C11524E5D20708F0F5C0C9
:100D40008C2F8695869520E2829FC00111249E01FA
:100D500023703327C1E0D0E002C0CC0FDD1F2A95FD
:100D6000E2F7C82BD92BDA6840C1CC3B8CE5D80719
:100D700009F4EBC098F4C11528E5D20708F4EEC0D9
:100D8000C11589E5D80708F4DBC0CC3A9CE5D90742
:100D900008F4E4C0CC5ADC45D46D27C1CF3B2CE528
:100DA000D20709F4D8C060F4CD3B9CE5D90709F41B
:100DB000CFC0CE3BDC4509F0D1C0C0E0D2ED15C1BB
:100DC000CE0190568115904208F0C8C08D2F8F71CA
:100DD0000E947508DD27D0628F71D82B06C1C53AF5
:100DE000D10509F4BEC0C63AD10509F4BDC0C3E8B7
:100DF000D0E4FBC0C83AD10509F4B9C0C93AD1055D
:100E000009F4B8C0CA3AD10509F4B7C0CB3AD10544
:100E100009F4B6C0CC3AD10509F4B5C0CB3BD10535
:100E200009F4B4C0CC3BD10509F4B3C0CD3AD10527
:100E300009F4B2C0C03BD10509F4B1C0CE3AD10526
:100E400009F4B0C0CF3AD10509F4AFC0C13BD10518
:100E500009F4AEC0C23BD10509F4ADC0C33BD10516
:100E600009F4ACC0C43BD10509F4ABC0C53BD10506
:100E700009F4AAC0C63BD10509F4A9C0C73BD105F6
:100E800009F4A8C0C83BD10509F4A7C0C93BD105E6
:100E900009F4A6C0CA3BD10509F0A5C0CAE2D6E450
:100EA000A4C0CE019F700E941D06EC019EC0CE0121
:100EB0009927D3FF03C0EC01D86C97C0EC01D06C2C
:100EC00094C0DF70D06A91C02C2F237081E090E035
:100ED00002C0880F991F2A95E2F79C689E0174E072
:100EE000369527957A95E1F72370922BCF70C695AA
:100EF000C69520E2C29FE0011124C82BD92B75C0F2
:100F00008C2F8695869520E2829FC00111249E0138
:100F100023703327C1E0D0E002C0CC0FDD1F2A953B
:100F2000E2F7C82BD92BDC6860C0DC2FCC27C46F5C
:100F3000D06A5BC0CF71DD27DC2FCC27D06255C0D3
:100F4000DC2FCC27C06FD06A50C0C0E0D1ED4DC0BF
:100F5000C0E0D0ED4AC0C0E0D3ED47C0C0E0D0E073
:100F600044C0C1E8D0E441C0C2E8D0E43EC0C2EE13
:100F7000D4E43BC0C9EED4E438C0CAEED4E435C0F2
:100F8000C5EBD4E432C0C6EBD4E42FC0C3EBD4E449
:100F90002CC0C4EBD4E429C0C7EBD4E426C0CCEC0D
:100FA000D4E423C0CDECD4E420C0C3E8D5E41DC014
:100FB000CAE8D5E41AC0C2E9D5E417C0C4E9D5E44B
:100FC00014C0C1E2D6E411C0C3E2D6E40EC0C4E24C
:100FD000D6E40BC0C5E2D6E408C0C6E2D6E405C03C
:100FE000C7E2D6E402C0C0E0D4E4CE01DF91CF91E5
:100FF00008958238910549F1B0F48133910509F4DF
:1010000059C048F48932910509F44FC08A329105DC
:1010100009F455C008958533910509F441C0893319
:10102000910599F00895833E910531F138F4803EA1
:10103000910591F0823E9105A9F00895863E9105B3
:1010400001F1873E910539F108952091CF0220FDED
:101050003BC021FD39C008958091CF0280FF34C08C
:1010600089E341C08091CF0282FF32C08091CF02DC
:1010700084FF2CC080E037C08091CF0282FD28C061
:10108000F5CF8091CF0283FF25C08091CF0284FDF0
:10109000F1CF87EE28C08091CF0283FD1BC0F5CF32
:1010A0008091CF0285FF18C019C08091CF0285FFC3
:1010B00015C012C08091CF0286FF12C013C080916C
:1010C000CF0286FF0FC00CC080EE0DC083EE0BC0B8
:1010D00082EE09C086EE07C085E305C089E203C041
:1010E00081E301C08AE290E00895CF93C82F0E9467
:1010F000761C282F30E03093D0022093CF0282FF5D
:101100000DC08C2F8871883019F4C77FC46006C069
:101110008C2F8471843011F4CB7FC86023FF0DC005
:101120008C2F8871883119F4C77EC46106C08C2F5A
:101130008471843111F4CB7EC86124FDC77E8C2F6D
:10114000CF9108950895CF93DF93EC01FB01828145
:10115000811102C081E040C080915701811125C0FA
:10116000C631DC45B9F70E94A20881E0809357019F
:101170000E94901D909356018093550110924A0150
:1011800010924C0110924B0110924E0110924D01A1
:101190001092500110924F01109252011092510181
:1011A000109254011092530116C0809155019091F4
:1011B00056010E949C1D883C910560F680914A0171
:1011C000E82FF0E0EE0FFF1FE55BFE4FD183C083F9
:1011D0008F5F80934A0180E0DF91CF9108950C9456
:1011E000DF030C94E00385B7806885BF85B780680E
:1011F00085BFABE2B1E021E030E08D91E82FE295D0
:10120000EF70F0E041A18F70B90102C0660F771F47
:101210008A95E2F7CB01962F9095492341A392A19D
:10122000982B92A371E0A033B70739F7A8E1B1E09A
:1012300021E030E08D91E82FE295EF70F0E041A1E0
:101240008F70B90102C0660F771F8A95E2F7CB0154
:10125000962F9095492341A392A1982B92A371E0D8
:10126000AB32B70739F7ECE6F1E0A8E5B1E011924F
:101270001192119211921D921D921D921D9281E068
:10128000E038F807A1F70C94D2052F923F924F92C5
:101290005F926F927F928F929F92AF92BF92CF9206
:1012A000DF92EF92FF920F931F93CF93DF93CDB70F
:1012B000DEB72A970FB6F894DEBF0FBECDBF0BE2A4
:1012C00011E088E591E09A87898722242394312CC4
:1012D000C12CD12C7601C394A985BA85BC83AB837C
:1012E0008D919D910D90BC91A02D8D839E83AF8398
:1012F000B887E985FA851082118212821382D8019B
:101300003D918D01E32FE295EF70F0E021A13F7058
:10131000410101C0880C3A95EAF7282921A322A1AE
:10132000A82CA0942A2122A3B0EABA95F1F788E16B
:1013300091E09A83898320E030E0A981BA814D91C0
:10134000BA83A983642F62956F7070E0DB01909679
:101350006C91A985BA854D905D906D907C904F7091
:10136000C10102C0880F991F4A95E2F7682359F41A
:10137000B701A601022E04C0440F551F661F771F38
:101380000A94D2F703C040E050E0BA01442A552A3B
:10139000662A772AA985BA854D925D926D927C92D4
:1013A00013972F5F3F4F2331310539F621A12A21B1
:1013B00021A322A1282922A31496BA87A987EB8109
:1013C000FC8140815181628173818D819E81AF81D9
:1013D000B88584179507A607B70749F091E0909361
:1013E00080010E94901D9093820180938101A1E071
:1013F00000331A0709F070CF809180018823E1F053
:1014000080918101909182010E949C1D0697A0F01D
:10141000E8E5F1E02CE631E0419151916191719163
:10142000D9014D935D936D937D939D01B1E0EC36B1
:10143000FB0791F7109280010E94C00581E02A9677
:101440000FB6F894DEBF0FBECDBFDF91CF911F91D5
:101450000F91FF90EF90DF90CF90BF90AF909F9053
:101460008F907F906F905F904F903F902F90089556
:1014700094E0899FF0011124E459FE4F608171814D
:10148000828193810895089531B3242F20952323D9
:1014900031B3342B4FB7F894FC01680F791FE6176E
:1014A000F70789F0819198E031BB000000C087FF09
:1014B00021BB880F000000C000C000C021BB00C0DD
:1014C0009A9591F7ECCF4FBF089520B3242B20BB02
:1014D0009B01220F331F260F371FB9010E94440AB8
:1014E00087EC90E00197F1F700C00000089540E418
:1014F0000C94650ADF92EF92FF920F931F93CF93A4
:10150000DF93662309F44AC0E42FF0E0AFEFB0E0C8
:10151000A61BB109BF01A69FE001A79FD00DB69FF2
:10152000D00D1124FD2FDD2E7B01ED1AF1080CE307
:1015300010E0B8010E94942AEB01BC01E69EC001B4
:10154000E79E900DF69E900D1124B8010E94942AFA
:10155000C230D105B1F040F4209779F0219709F518
:101560008F2FD42E461B20C0C430D10599F068F0CF
:101570002597B9F4842F861B17C08F2FD62EDF0E28
:1015800013C0862F8F0FD42E03C0D42ED61A842FCB
:101590004F2F0AC0842F462F4F0F06C0842FD42E02
:1015A00003C080E0D12C40E0E42FF0E0E957FB4F8E
:1015B0004491ED2DF0E0E957FB4F9491E82FF0E0D6
:1015C000E957FB4FE491D90111964C9311979C93E5
:1015D0001296EC93DF91CF911F910F91FF90EF90B6
:1015E000DF90089588E090E00C94CA2AAB01BC011A
:1015F00088E090E00C94E82A83E0809385021092C2
:1016000086028FEF80938702809388026091850223
:101610007091860280918702909188020C94F60A5C
:101620008091850280FF06C064E170E08DE892E061
:101630000C94770AEFE8F2E0DF0111971C92DF01CA
:1016400012971C921082339682E0EB3CF807A1F7C8
:10165000EBCFEFE8F2E0DF0111978C93DF011297F7
:101660006C934083339692E0EB3CF907A1F70C941E
:10167000100BCF92DF92EF92FF920F931F93CF93B5
:10168000DF9300D01F92CDB7DEB7F82EC92ED62E2D
:10169000E42E0091850210918602209187023091FC
:1016A00088020093890210938A0220938B02309360
:1016B0008C028091850280FF1EC09E012F5F3F4FEC
:1016C0008F2D0E947A0A80918902F0FA87F980931F
:1016D0008902F69420918A0220782F29C0FA27F9EE
:1016E00020938A02D0928B02E0928C024B81698116
:1016F0008A810E94290B0F900F900F90DF91CF915C
:101700001F910F91FF90EF90DF90CF9008958F92EF
:101710009F92AF92BF92CF92DF92EF92FF920F9380
:101720001F93CF93DF93EC01862E942E8091850238
:1017300080FF88C0982F9E77923021F4CE010E94BE
:10174000390B56C0E82FE695EF739EE39E0F9F730B
:10175000943018F4909088024BC09AE39E0F9F73C8
:10176000993070F4881F8827881F90918602292F4E
:10177000220FC22FC82B97FB992790F9D92F38C079
:1017800087E28E0F8F738A3098F5F0E07997E0FF4B
:1017900002C02FEF01C021E0EE7FE059FC4F8591A0
:1017A000949164E170E00E94942A26036001279FCF
:1017B000D00C11247E0188E9E81A8EEFF80A0DE8B2
:1017C00012E088E6A82EBB24B394C701B5010E949D
:1017D000942A9801492D682D0E947A0AEC0CFD1C70
:1017E0000D5F1F4F92E0093C190779F70E94100B1B
:1017F000809185029C2FC0FB87F980938502969586
:10180000809186028078892BD0FB87F980938602AD
:101810008092870290928802609185027091860280
:101820008091870290918802DF91CF911F910F9153
:10183000FF90EF90DF90CF90BF90AF909F908F90F0
:101840000C94F60ADF91CF911F910F91FF90EF90CA
:10185000DF90CF90BF90AF909F908F900895209190
:101860008502221F2227221F30918602432F440F18
:10187000842F822B37FB992790F9409668E671E018
:101880000E94A82A40918802609187020C94870BDD
:1018900020918502221F2227221F30918602432F8A
:1018A000440F842F822B37FB992790F980319105C3
:1018B0001CF4885A9E4F01C0409768E671E00E9470
:1018C000A82A40918802609187020C94870B60914E
:1018D0008702862F90E0803F910514F4605F01C07D
:1018E0006FEF80918502881F8827881F909186025C
:1018F000292F220F97FB992790F940918802822B7C
:101900000C94870B60918702862F90E0409714F02B
:10191000605101C060E080918502881F8827881F80
:1019200090918602292F220F97FB992790F94091D9
:101930008802822B0C94870B40918802842F90E0C0
:10194000803F910514F4405F01C04FEF8091850204
:10195000881F8827881F90918602292F220F97FBC6
:10196000992790F960918702822B0C94870B409104
:101970008802842F90E0409714F0405101C040E06D
:1019800080918502881F8827881F90918602292FC1
:10199000220F97FB992790F960918702822B0C9474
:1019A000870B9091850290FF44C09178811102C00D
:1019B000926003C0833220F094649093850205C046
:1019C0008F73880F892B80938502609185027091B7
:1019D000860280918702909188020E94F60A809187
:1019E0008502982F9E77923019F41092980110C0BA
:1019F000982F96959F732EE3290F2F73273120F48C
:101A000091E09093980104C0995D9F739A3068F3B8
:101A1000881F8827881F90918602292F220F97FB05
:101A2000992790F94091880260918702822B0C944B
:101A3000870B08958091570281608093570281E05F
:101A4000809399010E94591C811104C00E94331C8B
:101A50000E94FC0A0E94F20A60938502709386023B
:101A600080938702909388026E7761F40E94FC0A4B
:101A70000E94F20A60938502709386028093870227
:101A80009093880281E0809398018091850280FF85
:101A900004C086958F730C94D10C089580918502B3
:101AA00086958F738F5F833208F081E00C94D10CA0
:101AB00080918502982F909590FB80F98093850204
:101AC00060918502709186028091870290918802D0
:101AD0000E94F60A8091850280FF04C086958F736C
:101AE0000C94D10C109298012FEF80E792E02150D6
:101AF00080409040E1F700C000000C94100BCF93A1
:101B0000C82F80919601909197010E949C1DEC2F07
:101B1000F0E0ED57FC4FE491F0E08E179F0710F1D5
:101B20000E94901D9093970180939601E0919501FA
:101B3000F0E0E957FC4F449180918502881F882787
:101B4000881F90918602292F220F97FB992790F9E1
:101B500060918702822B0E94390B809195018F5FE3
:101B600080939501CF910895CF93C82F80919301D1
:101B7000909194010E949C1DEC2FF0E0E058FC4FE6
:101B8000E491F0E08E179F07E8F00E94901D90937B
:101B90009401809393014091880260918702809123
:101BA0009101909192010E94390B80919101909145
:101BB0009201019668E671E00E94942A9093920146
:101BC00080939101CF910895DF92EF92FF920F934E
:101BD0001F93CF93DF93D82E80918F019091900126
:101BE0000E949C1DED2DE695F0E0E058FC4FE4913D
:101BF000F0E08E179F07E8F10E94901D90939001EE
:101C000080938F010DE812E0C0E0D0E098E6E92E65
:101C1000FF24F39480918D0190918E018C0F9D1F74
:101C2000B7010E94942A980140918802609187022E
:101C30000E947A0A62960D5F1F4FC83681E0D8076E
:101C400049F70E94100B20918D0130918E01D0FE3A
:101C50000AC0C9010196BE010E94942A90938E0188
:101C600080938D0106C02150310930938E0120935D
:101C70008D01DF91CF911F910F91FF90EF90DF9039
:101C800008958F929F92AF92BF92CF92DF92EF9280
:101C9000FF920F931F93CF93DF93C82F80FD03C054
:101CA0009924939402C099249A9480918B019091E5
:101CB0008C010E949C1DC695EC2FF0E0E358FC4F70
:101CC000E491F0E08E179F0708F469C00E94901D10
:101CD00090938C0180938B013DE8E32E32E0F32E4C
:101CE0000FE812E0C0E0D0E047E0A42EB12CF801EC
:101CF00031971082F7011082F801108227E0C22E7E
:101D0000D12C812C80918A01880D87FD8C5E9927CA
:101D100087FD9095C817D907E9F4209188022C9D7A
:101D2000C0012D9D900D1124B5010E94A82A462FB7
:101D300080918502881F8827881F90918602592FDD
:101D4000550F97FB992790F9970160918702852B92
:101D50000E947A0A890CF1E0CF1AD108C114D1048B
:101D600089F6219683E0E80EF11C0D5F1F4FC43108
:101D7000D10509F0BCCF0E94100B80918A0191E03F
:101D8000991206C0811102C083E107C0815005C0CD
:101D900090E00196BE010E94A82A80938A01DF91FB
:101DA000CF911F910F91FF90EF90DF90CF90BF9058
:101DB000AF909F908F9008959F92AF92BF92CF92D5
:101DC000DF92EF92FF920F931F93CF93DF93CDB7E4
:101DD000DEB7EC970FB6F894DEBF0FBECDBF182F5D
:101DE00080918801909189010E949C1DE12FF0E073
:101DF000E658FC4FE491F0E08E179F0708F492C07C
:101E00000E94901D90938901809388018E010F5F3D
:101E10001F4F5E0183E0A80EB11CE12CF12C68017C
:101E2000F50131971082F8011082F5011082912C92
:101E30009091040180918701999E800D112487FD66
:101E400004C084311CF083E101C080E0992787FD44
:101E50009095E816F906A1F480918502881F8827DD
:101E6000881F90918602592F550F97FB992790F95B
:101E700098014091880260918702852B0E947A0A1E
:101E80009394F7E09F12D4CF8FEFE81AF80A0D5F12
:101E90001F4FE3E0AE0EB11CF4E1EF16F10409F0C0
:101EA000BFCF2FE832E009E010E064E1E62EF12C2C
:101EB000C801B7010E94A82AD9011197FC01EE0FB1
:101EC000FF1FE80FF91FEC0DFD1D81818C93D901D7
:101ED000129780818C938281F90180830F5F1F4F5D
:101EE0002D5F3F4F0D31110519F70E94100B909196
:101EF000040180918701913049F48A3F2CF489EFE5
:101F0000809387018FEF08C081500AC08B313CF06D
:101F10008AE18093870181E08093040103C08F5F91
:101F200080938701EC960FB6F894DEBF0FBECDBF4D
:101F3000DF91CF911F910F91FF90EF90DF90CF90A5
:101F4000BF90AF909F900895EF92FF920F931F93D1
:101F5000CF93DF9380918501909186010E949C1D13
:101F6000883E9340C8F10E94901D90938601809313
:101F70008501C0918301D09184012196C170DD2734
:101F8000D0938401C09383010DE812E0F12C78E72F
:101F9000E72E8F2D8695FE01E80FF11DCF01817090
:101FA000992798014091880260918702FC01EE9E7A
:101FB000C001EF9E900D11240E947A0AF3940D5FE8
:101FC0001F4FF4E1FF12E5CFDF91CF911F910F91E9
:101FD000FF90EF900C94100BDF91CF911F910F9118
:101FE000FF90EF90089580919801882391F12091BE
:101FF0008502822F86958F739EE3980F9F7394308E
:1020000018F482500C947F0D9AE3980F9F739330CD
:1020100018F486500C94B40D97E3980F9F73963084
:1020200018F489500C94E40D91E3980F9F73963047
:1020300018F48F500C94410E9BE2980F9F739330CD
:1020400018F485510C94DC0E2E77203311F40C9487
:10205000A40F089590939F0180939E010895E091AD
:102060009E01F0919F01309721F00190F081E02DC9
:10207000099480E00895E0919E01F0919F013097CE
:1020800021F00280F381E02D09940895E0919E01F2
:10209000F0919F01309721F00480F581E02D0994A3
:1020A000089520919C0130919D018217930771F052
:1020B00090939D0180939C01E0919E01F0919F017E
:1020C000309721F00680F781E02D09940895209142
:1020D0009A0130919B018217930771F090939B01B5
:1020E00080939A01E0919E01F0919F01309721F039
:1020F0000084F185E02D0994089508950C947D10D5
:102100000E94871D0E94F3080E945A1E0E94A72168
:102110000C941A0D4F925F926F927F929F92AF92A2
:10212000BF92CF92DF92EF92FF920F931F93CF93C4
:10213000DF93CDB7DEB72E970FB6F894DEBF0FBE94
:10214000CDBF0E94450931EAA32E31E0B32E00E055
:1021500010E0902E802F0E94380AF501C190D19096
:10216000E190F1905F01C626D726E826F926C11432
:10217000D104E104F104B1F40F5F1F4F05301105E4
:1021800041F78FEF89838A831B820E94901D8160B3
:10219000782F9D838C8349815A816B818D810E9428
:1021A00069115EC02091570221FF0AC06B877C87AE
:1021B0008D879E870E94430A9E858D857C856B85D1
:1021C00020E030E0422F26013701022E04C0769431
:1021D0006794579447940A94D2F740FE3AC02E83EE
:1021E0009F82C12CD12C7601C39404C0CC0CDD1C81
:1021F000EE1CFF1C4A95D2F7DC01CB018C219D21FE
:10220000AE21BF2121E0892B8A2B8B2B09F420E002
:1022100028870E94901D8160782F9A8789874E8138
:102220005F8168858A850E946911F801EE0FFF1FA2
:10223000EE0FFF1FEF55FE4F80819181A281B38188
:102240008C259D25AE25BF2580839183A283B383F2
:1022500007C02F5F3F4F2331310509F0B3CF8CCF3B
:102260000E94FA201091A0010E942F101817D9F097
:102270000E942F108093A0012E960FB6F894DEBF17
:102280000FBECDBFDF91CF911F910F91FF90EF90C7
:10229000DF90CF90BF90AF909F907F906F905F90B6
:1022A0004F900C9405062E960FB6F894DEBF0FBE25
:1022B000CDBFDF91CF911F910F91FF90EF90DF90F5
:1022C000CF90BF90AF909F907F906F905F904F9016
:1022D0000895CF93DF93CDB7DEB72B970FB6F89461
:1022E000DEBF0FBECDBF4F83588769877A878B8744
:1022F000DE01119686E0FD0111928A95E9F785E0ED
:10230000FE01379601900D928A95E1F749815A8135
:102310006B817C818D819E810E949E182B960FB6C9
:10232000F894DEBF0FBECDBFDF91CF910895882313
:1023300009F4D9C0823879F40E942F1081FDD3C0EE
:1023400069E380910501909106010E94EF1C0E94B3
:10235000C71B69E310C08338B1F40E942F1080FDC1
:10236000C2C063E580910501909106010E94EF1CB7
:102370000E94C71B63E580910501909106010E94B0
:10238000FA1C0C94C71B843879F40E942F1082FD2C
:10239000AAC067E480910501909106010E94EF1C9C
:1023A0000E94C71B67E4E7CF9CEF980F913A40F477
:1023B000682F80910501909106010E94EF1CE1CFEA
:1023C00090E2980F983050F4877091E001C0990F17
:1023D0008A95EAF7892F0E94FD1BD3CF9BE5980FC2
:1023E000933070F4853A29F0863A31F482E890E02F
:1023F00005C081E890E002C083E890E00C945110A1
:1024000098E5980F953108F06EC0883A61F1893AE5
:1024100069F18A3A71F18B3A79F18C3A81F18B3B0F
:1024200089F18C3B91F18D3A99F1803BA1F18E3A83
:10243000A9F18F3AB1F1813BB9F1823BC1F1833B04
:10244000C9F1843BD1F1853BD9F1863BE1F1873B72
:10245000E9F1883BF1F1893BF9F18A3B09F03FC092
:102460008AE292E03EC082EE90E03BC089EE90E0CE
:1024700038C08AEE90E035C085EB90E032C086EB44
:1024800090E02FC083EB90E02CC084EB90E029C05B
:1024900087EB90E026C08CEC90E023C08DEC90E0C0
:1024A00020C083E891E01DC08AE891E01AC082E96B
:1024B00091E017C084E991E014C081E292E011C07C
:1024C00083E292E00EC084E292E00BC085E292E0EB
:1024D00008C086E292E005C087E292E002C080E098
:1024E00090E00C9467100895882309F45DC0823849
:1024F00079F40E942F1081FF57C069E38091050194
:10250000909106010E94EF1C0E94C71B69E310C056
:102510008338B1F40E942F1080FF46C063E580919C
:102520000501909106010E94EF1C0E94C71B63E504
:1025300080910501909106010E94FA1C0C94C71B22
:10254000843879F40E942F1082FF2EC067E48091B6
:102550000501909106010E94EF1C0E94C71B67E4D1
:10256000E7CF9CEF980F913A10F4682FE1CF90E2FB
:10257000980F983050F4877091E001C0990F8A95B8
:10258000EAF7892F0E94031CD9CF9BE5980F93305F
:1025900020F480E090E00C945110885A853120F4AA
:1025A00080E090E00C9467100895882321F00E9449
:1025B000FD1B0C94C71B0895882321F00E94031C67
:1025C0000C94C71B08958F929F92BF92CF92DF9277
:1025D000EF92FF920F931F93CF93DF9300D0CDB76D
:1025E000DEB74C01472FFC01C580C2949FE0C92291
:1025F000D280DD2031F079836A830E941A1C6A81BF
:10260000498149836A830E94C01B49816A8188236A
:1026100089F0DD2079F080E2860F883058F082E082
:102620000E94A91B0E94C01BBB24B394B8264981F9
:102630006A8101C0B12CE42EE2948FE0E822F12CF3
:10264000F701E25AFF4F0C94BC2A842F807F142F8D
:102650001F70882311F01295107FDD20C1F0112327
:1026600009F4D9C180E2860F883010F0611105C0ED
:10267000812F6A830E94FD1B04C0812F6A830E9400
:102680000D1C6A816A830E94C71B6A81C4C1862FA0
:102690006A830E9474126A81112309F403C280E2E2
:1026A000860F883010F0611104C0812F0E94031C36
:1026B00003C0812F0E94131C0E94C71BF3C1242F4B
:1026C000207F842F8F70203211F08295807F6623C7
:1026D00019F06130B9F022C0DD2049F0CC2009F4B6
:1026E0004EC1F1E0CF124BC10E942D1CDBC1CC20AA
:1026F00021F021E0C21609F4D5C189830E94301C63
:10270000898143C1DD2029F095E09C1508F4CAC1F8
:1027100036C1E4E0EC1508F4C5C137C1DD2051F045
:10272000CC2009F42CC1F401958190FF74C19F70F5
:10273000958325C1CC2009F428C17EC1242F26957C
:102740002695237030E02115310521F02130310527
:1027500061F0A8C1DD2021F0862F942F937002C074
:1027600080E090E00E945110ADC1DD2021F0862F65
:10277000942F937002C080E090E00E946710A2C185
:10278000DD20F9F0653F51F0663F71F0643FA9F438
:102790008091C9029091CA0281600BC08091C902E8
:1027A0009091CA02826005C08091C9029091CA02CC
:1027B00084609093CA028093C902862F0E940220EF
:1027C0001EC0653F51F0663F71F0643FA9F48091EF
:1027D000C9029091CA028E7F0BC08091C90290916C
:1027E000CA028D7F05C08091C9029091CA028B7F79
:1027F0009093CA028093C902862F0E946A200E9489
:10280000EF2060C1842F837009F04EC0D11056C1F3
:10281000262F229526952770220F220F862F8F7044
:10282000C82ED12CE12CF12C022E04C0CC0CDD1CC6
:10283000EE1CFF1C0A94D2F764FF10C06FE070E03A
:1028400080E090E004C0660F771F881F991F2A95CB
:10285000D2F7609570958095909503C060E070E028
:10286000CB01242F26952695237030E022303105A8
:1028700069F02330310589F06C297D298E299F2943
:102880002130310571F00E94EF1918C16C297D29A2
:102890008E299F290E94011A11C10E94EF19C701B8
:1028A000B6010E94DD190AC1DD2019F0842F817064
:1028B00001C08695882309F401C1262F229526950B
:1028C0002770220F220F862F8F70C82ED12CE12C5B
:1028D000F12C022E04C0CC0CDD1CEE1CFF1C0A9453
:1028E000D2F764FF10C06FE070E080E090E004C0B9
:1028F000660F771F881F991F2A95D2F760957095EC
:102900008095909503C060E070E0CB01242F269560
:102910002695237030E02230310569F023303105EF
:1029200089F06C297D298E299F292130310571F08C
:102930000E949B1AC3C06C297D298E299F290E9461
:10294000AD1ABCC00E949B1AC701B6010E94891A29
:10295000B5C0062F10E0F801E05EF109E531F105A0
:1029600008F055C0E259FF4F0C94BC2A162F1F7077
:10297000842F8F71DD2031F00E94341A812F0E9444
:10298000D51290C00E944F1A812F0E94DC128AC07B
:10299000DD2049F0F4E0FC1508F484C0842F8F7129
:1029A0000E946E1A7FC025E02C1508F47BC0F6CF7C
:1029B000DD2039F0842F8F710E94341A73C0DD201E
:1029C000C9F3842F8F710E944F1A6CC0DD2029F04B
:1029D000842F8F710E94251A65C00E94201A62C040
:1029E000DD2051F0142F1F71812F0E94341A63E0F3
:1029F000812F0E94A01B56C081E00E94A91B81E08C
:102A00008C1508F04FC082E00E94A91B4BC0DD204E
:102A100031F0CC2079F2862F0E94971143C0CC2050
:102A200081F2693349F49FEFE7EEF3E09150E04023
:102A3000F040E1F700C00000862F0E94741232C0FF
:102A40004F70C4010E9407060E944B193BC0D11071
:102A500039C0942F9F70292F30E022303105B9F012
:102A60004CF42115310581F021303105D9F40E9453
:102A7000E02128C02330310569F02430310591F47C
:102A8000862F0E9434221EC00E94C4211BC00E94B7
:102A9000FC2118C00E940F2215C04F70C4010E9473
:102AA0000A0610C028E0E216F10441F05CF09AE05A
:102AB000E91AF108E2E0EE16F10420F40E942F106A
:102AC0000E940506BB20F1F00E949C1B80FD1AC0ED
:102AD000F40112820E94961B0E94341AC4010E94C3
:102AE00090150E94961B0F900F90DF91CF911F9130
:102AF0000F91FF90EF90DF90CF90BF909F908F90BD
:102B00000C944F1A0F900F90DF91CF911F910F915E
:102B1000FF90EF90DF90CF90BF909F908F9008959F
:102B20000F931F93CF93DF93EC01288139818B8121
:102B30009C81892B31F03F3F11F080E003C02F3F93
:102B4000E1F781E0811113C0CE010E94FC038823CC
:102B500071F0688179818A810E94651B8C010E94D5
:102B6000BF1A0E94DA19B801CE010E94E312DF9168
:102B7000CF911F910F9108950E941A1C0E942A1C48
:102B800080910501909106010E94051D0E94C71BBE
:102B90000E949B210E94EF2080E090E00E94511053
:102BA00080E090E00C9467100E940A1C0C94BC1505
:102BB0000E945A1BE92FE295EF70F0E03297EE3059
:102BC000F105B8F4ED57FF4F0C94BC2A803F59F043
:102BD00018F4803E70F407C0843F59F404C0803E6E
:102BE00010F0813F31F481E0089593FB882780F94C
:102BF000089580E00895CF93DF9300D000D01F9216
:102C0000CDB7DEB70F900F900F900F900F90DF9120
:102C1000CF910895CF93DF9300D000D000D0CDB7EF
:102C2000DEB726960FB6F894DEBF0FBECDBFDF919C
:102C3000CF9108951F93CF93DF93C091B60116E013
:102C40008091B701C81799F0D0E01C9FF0011D9F3B
:102C5000F00D1124E854FE4F40815181628173814F
:102C6000848195810E940A162196C770E9CFDF9171
:102C7000CF911F9108954091E8015091E901609131
:102C8000EA017091EB018091EC019091ED010C94BF
:102C90000A16CF938091ED0182958F7009F05FC085
:102CA0008091EA01882309F45AC02091B601A091CD
:102CB000B7016091E8017091E9018091EB01909179
:102CC000EC0131E06F3F09F030E0B32FC6E02A1786
:102CD00009F445C0009721F07F3F21F44B2F03C03A
:102CE00041E001C040E030E040FD35C0C29FF0014E
:102CF000C39FF00D1124E854FE4F418174132BC083
:102D00004081641328C04281411125C04381548110
:102D10004817590710F441505109481B590B483CBA
:102D20005105C8F48091ED018F7080618093ED01B1
:102D300086E0829FF001839FF00D1124E354FE4F43
:102D400080818F708061808388EE91E00E94901571
:102D5000CF910C941A162F5F3F4F2770B8CFCF91A9
:102D60000895CF92DF92EF92FF920F931F93CF932C
:102D7000DF93CDB7DEB762970FB6F894DEBF0FBE14
:102D8000CDBF8C0185E0F801DE011D9601900D920A
:102D90008A95E1F7D8014C9111965C9111971296A2
:102DA0006C9112971396ED90FC9014977091E80136
:102DB000E091E9012091EB013091EC012115310501
:102DC00031F0EF3F31F481E07F3F19F403C081E03F
:102DD00001C080E0B82FB170CB2E80FD6CC1D090C7
:102DE000EA01DD2009F4F5C0F091ED01E216F306E9
:102DF00038F0C701821B930B883C910548F09BC0BB
:102E0000209530952E0D3F1D283C310508F093C0CC
:102E10008F2F807F09F052C0E51314C0741312C0C5
:102E2000D62E61110FC0FF70F061F093ED010E948A
:102E30003B1688EE91E00E9490158091ED01F8011B
:102E400085836CC1EF2831F05F3F31F481E04F3F63
:102E500019F403C081E001C080E080FD03C081E07F
:102E6000862701C080E0F82FF170FF2E80FF1CC084
:102E70008091B6012091B70136E0821709F428C18C
:102E800090E0389FF001399FF00D1124E854FE4F77
:102E90007181571306C07081471303C07281671395
:102EA00003C001968770E9CFD62E662309F436C198
:102EB0008091ED0181608093ED0153C0E51308C05E
:102EC000741306C0611104C0D8011596FC93AEC0FE
:102ED0004D875E878D859E856A8B0E94D8156A898D
:102EE000882329F1D62E662311F12091ED01822F3E
:102EF00082958F7090E002970CF460C08091E80199
:102F00009091E90198878F831986FB86EA862C8742
:102F1000CE01079651C0E51731F14D875E878D854B
:102F20009E856A8B0E94D8156A8981112EC0C801BE
:102F30000E949015A4C08F2F807F69F77E2DF98A9B
:102F4000E88A89890E94FB1588EE91E00E9490151D
:102F5000E8EEF1E086E0DF011D928A95E9F70E9434
:102F60003B16D12CDBC07413D8CF6111D6CFD8015A
:102F70001596FC93C8010E949015E8EEF1E086E0FA
:102F8000DF011D928A95E9F7C9C0D62E662379F232
:102F90002091ED01822F82958F7090E0029774F05E
:102FA0008091E8019091E9019A8389831B82FD82D7
:102FB000EC822E83CE0101960E94901586E0F801E6
:102FC000A8EEB1E001900D928A95E1F70E944916B2
:102FD0006FC0E216F30628F0C701821B930B9C0119
:102FE00004C0209530952E0D3F1D283C310508F07A
:102FF00052C0D62E662309F49ACFE5132CC0741361
:103000002AC08091ED0180FD1DC0982F92959F7080
:10301000C9F0D80115968C9315979F3039F09F5FB2
:103020009295907F8F70892B15968C93C8010E9482
:10303000901586E0F801A8EEB1E001900D928A9516
:10304000E1F736C086E0F801A8EEB1E001900D92FC
:103050008A95E1F763C04D875E878D859E850E94C6
:10306000D815882379F086E0F801A8EEB1E0019048
:103070000D928A95E1F70E9449160E943B16DD24C5
:10308000D3944CC08091ED0181608093ED01C80123
:103090000E94901543C07E2DF98AE88A89890E9492
:1030A000FB15E8EEF1E086E0DF011D928A95E9F775
:1030B0000E943B1633C0662309F439CF4D875E87E3
:1030C0008D859E850E94D815882309F430CFCBCFFB
:1030D0004D875E878D859E850E945A1B292F2295DC
:1030E0002F7030E0223031052CF49F7041F08111B7
:1030F00006C00CC0243031052CF49F7049F4805E6A
:10310000883020F0C8010E949015CF2CDC2C06C01E
:10311000D80115969C91907F91F7F8CF8D2D6296EE
:103120000FB6F894DEBF0FBECDBFDF91CF911F91D8
:103130000F91FF90EF90DF90CF9008951F93CF9362
:10314000DF93CDB7DEB72C970FB6F894DEBF0FBE76
:10315000CDBF4F83588769877A878B879C87CE013D
:1031600007960E94B1168823C1F02F8138858A8581
:103170009B85892B31F03F3F11F080E003C02F3F4A
:10318000E1F781E0811147C04F81588569857A85D3
:103190008B859C850E940A163EC086E0FE0137960C
:1031A000DE01119601900D928A95E1F7FF81E88585
:1031B0004A855B854115510531F0EF3F31F481E0DF
:1031C000FF3F19F403C081E001C080E080FD23C00F
:1031D0002091B70130E0C90101968770992760916D
:1031E000B60170E086179707F1F1F983EA835D83F2
:1031F0004C8396E0929FD001939FB00D1124A85468
:10320000BE4FFE01319601900D929A95E1F78093A1
:10321000B7010E941A1616E08091B6019091B7018D
:10322000891779F1189FC001112488549E4F0E947C
:10323000B116882331F1E091B6011E9FF0011124EF
:10324000E854FE4F40815181628173818481958170
:103250000E940A168091B60190E001968770992726
:103260008093B601D9CF0E94D4151092B701109265
:10327000B601E8EEF1E086E0DF011D928A95E9F7FC
:10328000CACF2C960FB6F894DEBF0FBECDBFDF912C
:10329000CF911F910895EF92FF920F931F93CF93B9
:1032A000DF939C01009709F471C0F12CEE24E394A4
:1032B000E9012196F9018491843740F4843008F0C3
:1032C00056C0813081F0823021F160C0853709F429
:1032D00049C0C0F19CE7980F903708F057C08F772E
:1032E0000E94741246C089010E5F1F4FFE01849137
:1032F00090E2980F983050F48770FE2D01C0FF0FB8
:103300008A95EAF78F2F0E941D1C15C00E94971105
:1033100014C089010E5F1F4FFE01849190E2980F47
:10332000983068F48770FE2D01C0FF0F8A95EAF788
:103330008F2F0E94231C0E94C71BE8011AC00E9405
:103340007412FBCF2E5F3F4FFE01C491CC2341F09E
:103350008FE99FE00197F1F700C00000C150F6CF60
:10336000E90107C0FE01F490E901229602C00E9423
:1033700097118F2D882341F0EFE9FFE03197F1F7A6
:1033800000C000008150F6CF9E0192CFDF91CF9117
:103390001F910F91FF90EF90089508950E94CD190D
:1033A00060932E0270932F0280933002909331022B
:1033B0000C94BC1508950C94CE190F931F93009193
:1033C0002E0210912F022091300230913102602B99
:1033D000712B822B932B1F910F910C94CE190F936D
:1033E0001F9300912E0210912F02209130023091F4
:1033F000310260237123822393231F910F910C9438
:10340000CE190F931F9300912E0210912F0220913D
:1034100030023091310260277127822793271F9154
:103420000F910C94CE1908950E94131A60932A02EA
:1034300070932B0280932C0290932D020C94BC1558
:1034400060E070E0CB010C94141A41E050E060E0C1
:1034500070E004C0440F551F661F771F8A95D2F78E
:10346000CB01BA010C94141A41E050E060E070E026
:1034700004C0440F551F661F771F8A95D2F78091AD
:103480002A0290912B02A0912C02B0912D02482B80
:10349000592B6A2B7B2BCB01BA010C94141A41E0F7
:1034A00050E060E070E004C0440F551F661F771FB6
:1034B0008A95D2F7409550956095709580912A0233
:1034C00090912B02A0912C02B0912D0248235923F8
:1034D0006A237B23CB01BA010C94141A41E050E01B
:1034E00060E070E004C0440F551F661F771F8A9587
:1034F000D2F780912A0290912B02A0912C02B091D8
:103500002D02482759276A277B27CB01BA010C9443
:10351000141A0F931F9300912A0210912B022091ED
:103520002C0230912D02602B712B822B932B1F913B
:103530000F910C94141A0F931F9300912A0210916B
:103540002B0220912C0230912D02602371238223C3
:1035500093231F910F910C94141A0F931F930091B2
:103560002A0210912B0220912C0230912D0260270B
:103570007127822793271F910F910C94141A089595
:1035800023E1929F800D1124482F4695469546953C
:103590008770B1E001C0BB0F8A95EAF785E0489FCC
:1035A000A001112442515E4F80E090E070E0FA01EA
:1035B000E80FF91FA0819B01082E02C036952795C0
:1035C0000A94E2F72170332721952A272B232A27F3
:1035D000208301968530910551F7089523E1929F4C
:1035E000800D1124682F669566956695982F9770C3
:1035F00085E0689FB001112462517E4F40E050E0A9
:1036000080E0FB01E40FF51F208130E0092E02C0AD
:10361000369527950A94E2F721703327042E01C0CE
:10362000220F0A94EAF7822B4F5F5F4F4530510516
:1036300041F70895CF92DF92EF92FF920F931F937D
:10364000CF93DF93EC01C0902E02D0902F02E09038
:103650003002F090310280912A0290912B02A091C9
:103660002C02B0912D02C82AD92AEA2AFB2A0FE19E
:1036700010E0B701A601002E04C076956795579516
:1036800047950A94D2F740FD05C00150110988F70B
:1036900080E007C0BE01802F0E9425060197A9F394
:1036A000802FDF91CF911F910F91FF90EF90DF90CE
:1036B000CF900895CF93DF93EC010E941A1BBE01B7
:1036C0000E942506DF91CF9108951F93CF93DF933A
:1036D000EB019091B501992321F0CB010E945A1B77
:1036E00013C0882349F0CB010E941A1B182F682FA2
:1036F000CE010E94C01A04C0CB010E94EE1A182FFE
:10370000BE01812F0E942506DF91CF911F91089560
:10371000682F80910501909106010C94EF1C682F91
:1037200080910501909106010C94FA1C809132025F
:1037300085958595859508958091320287700895C5
:1037400098E0899F90011124622B609332020C94BF
:10375000341A409132028095842380933202982F4C
:10376000977069F450E0282F332727FD30954217D2
:10377000530729F08595859585950C944F1A0895E2
:1037800090913202977081E009F480E00895E09111
:103790000501F0910601809156028083E0910501B8
:1037A000F0910601808190915502892B8083E091F0
:1037B0000501F0910601808190915402892B80834C
:1037C00090913302992381F0E0910501F091060177
:1037D0008081892B808380910501909106010E9450
:1037E000881C81111092330280910501909106018D
:1037F0000C943B1080915602089590915602982B9C
:103800009093560208958095909156029823909334
:103810005602089510925602089590915502982BE1
:103820009093550208958095909155029823909316
:103830005502089510925502089590915402982BC4
:1038400090935402089580959091540298239093F8
:1038500054020895109254020895809333020895FB
:103860001092330208956DEE7EEF80E090E00E94AA
:10387000F42A60E082E090E00E94D62A60E083E0D3
:1038800090E00E94D62A60E084E090E00E94D62A70
:1038900060E085E090E00E94D62A60E086E090E05B
:1038A0000E94D62A40E050E0BA0188E090E00C94F3
:1038B000E82A80E090E00E94D02A21E08D3E9E4FD1
:1038C00009F020E0822F089582E090E00C94C22A53
:1038D000682F82E090E00C94D62A83E090E00C946C
:1038E000C22A682F83E090E00C94D62A84E090E00E
:1038F0000C94C22A682F84E090E00C94D62A86E0CB
:1039000090E00C94C22A682F86E090E00C94D62AAE
:1039100020E030E040E0FC01E20FF31F5181511143
:103920004F5F2F5F3F4F2F313105A9F7842F089547
:1039300020E030E04FEFFC01E20FF31F52815617F9
:1039400099F04F3F19F4511101C0422F2F5F3F4FA3
:103950002E31310581F74F3F39F0FC01E40FF11DA5
:1039600047FDFA9562830895089520E030E0FC0158
:10397000E20FF31F4281461301C012822F5F3F4FB7
:103980002E313105A1F70895262F269526952695E7
:103990002F3170F4FC01E20FF11D677021E030E07F
:1039A000062E01C0220F0A94EAF78181822B8183BF
:1039B0000895262F2695269526952F3178F4FC011B
:1039C000E20FF11D677021E030E0062E01C0220FEA
:1039D0000A94EAF720958181282321830895209174
:1039E0001701222329F02091CF0227FD0C94C41C3B
:1039F0000C94981C20911701222329F02091CF02CA
:103A000027FD0C94D91C0C94B51C20E030E0FC017F
:103A1000E20FF31F11822F5F3F4F2F313105B9F7AE
:103A200008958091D602843039F11092580220E432
:103A300088E190E00FB6F894A895809360000FBEDF
:103A40002093600080E00E94D60580E00E94050679
:103A500083B7817F846083BF83B7816083BF78949D
:103A6000889583B78E7F83BF88E10FB6F8948093E3
:103A70006000109260000FBE089508950895CF93DE
:103A80000E943D1D0E9445090E943E1DC0E08C2FF2
:103A90000E94380A672B682B692B29F4CF5FC53049
:103AA000B1F780E001C081E0CF9108950E94D41564
:103AB0000E94A7210E942F100C9405061F920F92BE
:103AC0000FB60F9211248F939F93AF93BF93809162
:103AD0005802811113C08091CB029091CC02A09129
:103AE000CD02B091CE024196A11DB11D8093CB02B3
:103AF0009093CC02A093CD02B093CE02BF91AF9130
:103B00009F918F910F900FBE0F901F90189582E09C
:103B100084BD93E095BD9AEF97BD80936E000895A4
:103B20002FB7F8948091CB029091CC02A091CD0256
:103B3000B091CE022FBF0895CF92DF92EF92FF9205
:103B40000F931F932FB7F8944091CB025091CC0262
:103B50006091CD027091CE022FBF6A017B01EE24ED
:103B6000FF248C0120E030E0C016D106E206F30607
:103B700010F441505109481B590BCA011F910F9174
:103B8000FF90EF90DF90CF90089578941F920F925E
:103B90000FB60F9211248F939F93AF93BF93809191
:103BA000CB029091CC02A091CD02B091CE020196B1
:103BB000A11DB11D8093CB029093CC02A093CD02A6
:103BC000B093CE02BF91AF919F918F910F900FBE96
:103BD0000F901F9018950E946A26F8942FEF87EA9D
:103BE00091E6215080409040E1F700C0000087E05E
:103BF00090EBDC018093DF029093E002A093E1025E
:103C0000B093E2022CE088E190E00FB6F894A8951A
:103C1000809360000FBE20936000FFCFBF92CF92D1
:103C2000DF92EF92FF920F931F93CF93DF93B12C0C
:103C3000C82FD0E08B2D0E94380A6B017C0100E078
:103C400010E0B701A601002E04C076956795579540
:103C500047950A94D2F740FD06C00F5F1F4F03310E
:103C6000110579F70AC0602F7B2D80E00E940B06BA
:103C7000C817D90791F781E005C0B39485E0B81261
:103C8000D9CF80E0DF91CF911F910F91FF90EF90FE
:103C9000DF90CF90BF900895CF93C82F8CE20E9401
:103CA0000E1E882321F08C2FCF910C940E1E80E0E5
:103CB000CF910895CF930E94591C811102C00E9498
:103CC000331CC5E6C15049F00E9445098FE39CE9C9
:103CD0000197F1F700C00000F5CF89E20E944C1E69
:103CE00081110DC18AE20E944C1E81110E94331C79
:103CF00085E00E944C1E81110E94EB1D0E94641CF5
:103D00008093570287E00E944C1E882399F18BE133
:103D10000E944C1E882351F09091570291FB8827F6
:103D200080F921E0822780FB91F922C08EE00E9479
:103D30004C1E882351F09091570292FB882780F9FE
:103D400021E0822780FB92F913C080E10E944C1E83
:103D500090915702882341F093FB882780F921E056
:103D6000822780FB93F904C0892F809580FB90F90E
:103D700090935702809157020E94681C0E94761C03
:103D800090E09093D0028093CF0280EE0E944C1E70
:103D9000882341F08091CF02982F909590FB80F975
:103DA0008093CF0289E30E944C1E882359F09091A2
:103DB000CF0291FB882780F921E0822780FB91F9CF
:103DC0009093CF0282EE0E944C1E882359F090916E
:103DD000CF0292FB882780F921E0822780FB92F9AD
:103DE0009093CF0286EE0E944C1E882359F090914A
:103DF000CF0293FB882780F921E0822780FB93F98B
:103E00009093CF0283EE0E944C1E882359F090912C
:103E1000CF0294FB882780F921E0822780FB94F968
:103E20009093CF0285E30E944C1E882359F0909115
:103E3000CF0295FB882780F921E0822780FB95F946
:103E40009093CF0281E30E944C1E882359F09091F9
:103E5000CF0296FB882780F921E0822780FB96F924
:103E60009093CF0281E10E944C1E882359F09091DB
:103E7000CF0297FB882780F921E0822780FB97F902
:103E80009093CF028091CF020E947A1C87E20E9419
:103E90004C1EC82F8EE10E944C1E8111C2608FE122
:103EA0000E944C1E8111C46080E20E944C1E811150
:103EB000C86081E20E944C1E8111C06182E20E94B2
:103EC0004C1E8111C06283E20E944C1E8111C064AD
:103ED00084E20E944C1E882311F0C06802C0CC23EB
:103EE00029F08C2F0E94711C6C2F03C00E946D1C46
:103EF000682F70E080E090E0CF910C94DB19CF91B7
:103F0000089580915B0280FF0BC060910A0185E0FB
:103F1000689FB001112475956795759567952AC0BE
:103F200081FF09C060910A0185E0689FB0011124FA
:103F3000759567951FC082FF07C060910A0185E0F3
:103F4000689FB001112416C040915C024423C9F05F
:103F500060910901461788F720910A0185E0289FA2
:103F600090011124429FC001439F900D112470E0E5
:103F70000E94A82A6038710540F46115710539F076
:103F800002C065E070E0862F08958FE7089581E014
:103F9000089580915B0280FF08C06091080170E085
:103FA000759567957595679521C081FF06C06091ED
:103FB000080170E07595679519C082FF04C0609193
:103FC000080170E010C080915C028823C1F060910C
:103FD00007018617A0F790910801989FC00111244E
:103FE00070E00E94A82A6038710528F461157105F7
:103FF00021F0862F08958FE7089581E0089561E00C
:1040000070E0F4CF803F21F40E94811F819504C0AD
:10401000813F29F40E94811F80935F020895823FAF
:1040200021F40E94811F819504C0833F29F40E94DE
:10403000811F80935E020895893F19F40E94C91F71
:1040400005C08A3F31F40E94C91F819580936002A8
:1040500008958B3F21F40E94C91F819504C08C3FB5
:1040600029F40E94C91F809361020895843F21F4BE
:1040700080915D02816017C0853F21F480915D02CF
:10408000826011C0863F21F480915D0284600BC084
:10409000873F21F480915D02886005C0883F31F43C
:1040A00080915D02806180935D0208958D3F21F4CF
:1040B00080915B0281600BC08E3F21F480915B0296
:1040C000826005C08F3F29F480915B0284608093F9
:1040D0005B020895803F39F480915F0287FF6CC0D6
:1040E00010925F0269C0813F29F480915F02181627
:1040F000BCF362C090915E02823F29F497FF5CC0DE
:1041000010925E0259C0833F19F41916CCF354C0C3
:10411000893F41F48091600218160CF04DC0109256
:1041200060024AC08A3F29F48091600287FF44C040
:10413000F6CF8B3F39F48091610287FF3DC010922A
:1041400061023AC08C3F29F4809161021816BCF3D9
:1041500033C0843F21F480915D028E7F17C0853F7C
:1041600021F480915D028D7F11C0863F21F4809102
:104170005D028B7F0BC0873F21F480915D02877FBA
:1041800005C0883F31F480915D028F7E80935D028F
:1041900013C08D3F21F480915B028E7F0BC08E3F58
:1041A00021F480915B028D7F05C08F3F29F48091BF
:1041B0005B028B7F80935B0280915E0281110EC057
:1041C00080915F0281110AC080916002811106C056
:1041D00080916102811102C010925C0208958DE508
:1041E00092E00E9446100E94901D90935A02809384
:1041F000590208951F93CF93DF93809159029091B4
:104200005A020E949C1D40915C02442321F020919F
:104210000B0130E006C020910C015AE0259F90016F
:1042200011248217930708F482C080915E021091D6
:104230005F02D0916002C0916102811107C011112B
:1042400005C0D11103C0CC2309F471C04F3F19F050
:104250004F5F40935C02181624F40E94811F8093E4
:104260005E0280915E0287FF05C00E94811F8195DA
:1042700080935E02111624F40E94811F80935F02D6
:1042800080915F0287FF05C00E94811F8195809306
:104290005F0260915E02662339F110915F02112383
:1042A00019F1772767FD7095872F972F0E94A52911
:1042B00023E333E343E35FE30E94092A0E94722968
:1042C00060935E02612F772767FD7095872F972F88
:1042D0000E94A52923E333E343E35FE30E94092A15
:1042E0000E94722960935F021D1624F40E94C91F68
:1042F000809360028091600287FF05C00E94C91F01
:104300008195809360021C1624F40E94C91F80933B
:1043100061028091610287FF05C00E94C91F8195DB
:1043200080936102DF91CF911F910C94EF20DF9178
:10433000CF911F910895EDE5F2E085E0DF011D9238
:104340008A95E9F710925C0210925B0208950E9430
:10435000591C811102C00E94331C0E947F1C809353
:10436000D102282F269530E02430310524F08170C9
:1043700086608093D1028091D10280FF02C0869531
:1043800001C080E00C94D6052091D102322F3695E1
:10439000832F90E0039744F491E0930F990F822FBD
:1043A0008170892B8093D1028091D10281608093AA
:1043B000D1020E94831C8091D10286950C94D6056F
:1043C0008091D102982F969591F09158990F817014
:1043D000892B8093D1028E7F91E009F490E0809147
:1043E000D10290FB80F98093D1020E94831C8091BE
:1043F000D10286950C94D6058091D102982F909584
:1044000090FB80F98093D1020E94831C8091D1029D
:1044100080FF02C0869501C080E00C94D6053091E3
:10442000D102232F26952F5F2F77822F90E03170B6
:1044300004972CF4220F232B2093D10202C0309337
:10444000D1028091D1028E7F91E009F490E08091B9
:10445000D10290FB80F98093D1020E94831C80914D
:10446000D10286950C94D6052091D102922F969573
:104470009827990F822F8170892B8093D1028E7F8C
:1044800091E009F490E08091D10290FB80F9809353
:10449000D1020E94831C8091D10286950C94D6058E
:1044A0008091820208950F931F93CF93DF9300D0E2
:1044B0001F92CDB7DEB78C010E94C124823011F06B
:1044C000843019F583E089831B830A838093E90094
:1044D0008FEF9091E800815095FD06C095ED9A957B
:1044E000F1F700008111F5CF8091E80085FF0DC044
:1044F00040E050E063E070E0CE0101960E94DE24CF
:104500008091E8008E778093E8000F900F900F90D5
:10451000DF91CF911F910F910895CF93DF9300D03A
:104520001F92CDB7DEB72091D602243031F522E0BC
:104530002983805891099B838A8383E08093E900D3
:104540008FEF9091E800815095FD06C095ED9A950A
:10455000F1F700008111F5CF8091E80085FF0DC0D3
:1045600040E050E063E070E0CE0101960E94DE245E
:104570008091E8008E778093E8000F900F900F9065
:10458000DF91CF910895CF93DF93EC010E94C12476
:10459000823011F08430F9F482E08093E9008FEFEB
:1045A0009091E800815095FD06C095ED9A95F1F740
:1045B00000008111F5CF8091E80085FF0CC040E03C
:1045C00050E065E070E0CE010E94DE248091E800BA
:1045D0008E778093E800DF91CF910895CF93DF939A
:1045E000EC010E94C124823019F0843009F047C0E8
:1045F000809117018823E1F08091CF0287FF18C0D6
:1046000084E08093E9008FEF9091E800815095FD60
:1046100006C095E19A95F1F700008111F5CF8091E0
:10462000E80085FF2CC040E050E060E270E017C079
:1046300081E08093E9008FEF9091E800815095FD33
:1046400006C095ED9A95F1F700008111F5CF8091A4
:10465000E80085FF14C040E050E068E070E0CE0163
:104660000E94DE248091E8008E778093E80080E24B
:10467000FE01A2E6B2E001900D928A95E1F7DF918A
:10468000CF9108958091D502811109C00E946A26B8
:104690000E94CC268091E20084608093E20008951D
:1046A0001092D5020895089508950C94561D42E085
:1046B00061EC81E00E94E42542E061EC82E00E942E
:1046C000E42542E061EC83E00E94E42542E261ECF3
:1046D00084E00C94E4258091D802833009F455C01D
:1046E00030F4813071F0823009F48EC008958A3040
:1046F00009F47AC08B3009F460C0893009F09CC09D
:1047000020C08091D702813A09F096C08091E800DC
:10471000877F8093E8008091DB029091DC02892BF7
:1047200021F060E080E090E003C060E282E692E089
:1047300070E00E9427258091E8008B778093E80045
:1047400008958091D702813209F076C08091DB0212
:104750009091DC02009719F0039709F06DC08091E9
:10476000E800877F8093E8008091E80082FD05C023
:104770008091D6028111F8CF5FC08091F1008093C3
:1047800082028091E8008B7753C08091D702813AF2
:1047900009F052C08091DB029091DC02892B09F074
:1047A0004BC08091E800877F8093E8008091E8000B
:1047B00080FFFCCF8091170136C08091D7028132F3
:1047C000D9F58091DB029091DC02892BA9F58091CB
:1047D000E800877F8093E8000E9419268091D90223
:1047E000809317010C94D4158091D702813221F562
:1047F0008091E800877F8093E8000E9419268091CD
:10480000DA028093830208958091D702813AA1F45D
:104810008091E800877F8093E8008091E80080FF26
:10482000FCCF809183028093F1008091E8008E7725
:104830008093E8000C941926089584B7877F84BF7D
:1048400088E10FB6F89480936000109260000FBE6C
:1048500080E880936100109261000E947E100E94A7
:104860006A260E94CC268091E20084608093E20058
:1048700078940E9455290E9480108DE091E00E945A
:104880002A108091D602853069F40E94111D809112
:10489000D4028823B1F30E943F1D882391F30E9424
:1048A000C824EFCF0E948A100E94F30FEACF292F6D
:1048B000332723303105A9F06CF42130310509F498
:1048C00042C02230310509F043C08DE690E023EB71
:1048D00035E042C021323105C9F02232310519F1EB
:1048E00037C099278130910541F08230910541F020
:1048F000892B71F5EFEAF5E005C0E3E9F5E002C0C8
:10490000E7E8F5E0849190E09F0126C064307105EE
:10491000F8F4FB01EE0FFF1FE45CFE4F20813181B4
:1049200089E090E019C06430710590F4FB01EE0F4E
:10493000FF1FEC5CFE4F20813181FB01E05DFE4FEB
:10494000808190E009C082E190E020E236E004C07E
:1049500080E090E020E030E0FA0131832083089588
:104960000895CF93C82F0E94B024C0938402CF91A2
:1049700008958091D602843011F482E0089581E098
:10498000089580918402811102C00C94B924089585
:1049900084E189BD86E189BD09B400FEFDCF809127
:1049A000D8008F7D8093D8008091E0008260809352
:1049B000E0008091E00081FDFCCF0895CF92DF926E
:1049C000EF92FF920F931F93CF93DF937C018B01A4
:1049D000EA010E943A26811131C0209731F0888186
:1049E0009981081B190BE80EF91EC12CD12C011559
:1049F000110519F18091E80085FD14C08091E8004F
:104A00008E778093E800209741F0888199818C0D02
:104A10009D1D9983888385E011C00E943A268823D2
:104A200031F30CC0F70181917F018093F1000150B7
:104A30001109FFEFCF1ADF0ADACF80E0DF91CF91C3
:104A40001F910F91FF90EF90DF90CF9008952091EC
:104A5000DD023091DE022617370748F06115710537
:104A600039F42091E8002E772093E80001C0B901C5
:104A7000FC0120E06115710599F18091D60288232F
:104A8000E9F18530E9F18091E80083FD3BC0809138
:104A9000E80082FF06C08091E80082FF24C080E029
:104AA00008958091E80080FFE5CF8091F200909119
:104AB000F3006115710551F08830910538F42191AA
:104AC0002093F100615071090196F3CF21E008971E
:104AD00009F020E08091E8008E778093E800CACF4B
:104AE0002111CBCFD8CF8091D602882339F08530E1
:104AF00039F08091E80083FFCECF04C082E00895B2
:104B000083E0089581E008952091DD023091DE0276
:104B10002617370748F06115710539F42091E80030
:104B20002E772093E80001C0B901FC0120E0611557
:104B30007105B1F18091D602882309F43FC0853018
:104B400009F43EC08091E80083FD3CC08091E800FC
:104B500082FF06C08091E80082FF25C080E00895B2
:104B60008091E80080FFE3CF8091F2009091F30004
:104B70006115710559F08830910540F42491209316
:104B8000F1003196615071090196F2CF21E008974A
:104B900009F020E08091E8008E778093E800C7CF8D
:104BA0002111C8CFD7CF8091D602882339F0853024
:104BB00039F08091E80083FFCDCF04C082E00895F2
:104BC00083E0089581E00895982F973058F59093E9
:104BD000E900981739F07091EC002091ED005091A8
:104BE000F00003C0242F762F50E021FF19C0309130
:104BF000EB003E7F3093EB003091ED003D7F309332
:104C0000ED003091EB0031603093EB007093EC00DD
:104C10002093ED005093F0002091EE0027FF07C095
:104C20009F5FD3CF8F708093E90081E0089580E08B
:104C300008958091D70287FD05C08091E80080FF2C
:104C40000EC012C08091E80082FD05C08091D6029E
:104C50008111F8CF08958091E8008B7708C080918A
:104C6000D6028111EACF08958091E8008E77809373
:104C7000E80008958091E4009091E50045E62091D8
:104C8000EC0020FF21C02091E80020FD21C02091F0
:104C9000D602222389F0253089F02091EB0025FDF2
:104CA0000FC02091E4003091E5002817390739F34F
:104CB000415041F0C901E3CF82E0089583E00895B7
:104CC00081E0089584E008952091E80022FFDFCF7D
:104CD00080E008950E94DB260E94E326E0EEF0E0EB
:104CE000808181608083E8EDF0E080818F77808330
:104CF00019BCA7EDB0E08C918E7F8C9380818F7E64
:104D000080831092D50208950F931F93CF93DF9362
:104D10000E94DB260E94E326C8EDD0E088818F77D1
:104D2000888388818068888388818F7D8883E7ED88
:104D3000F0E080818068808319BC1092D6021092C6
:104D4000D2021092D4021092D30200EE10E0F801C9
:104D500080818B7F808388818160888342E060E0EE
:104D600080E00E94E425E1EEF0E080818E7F808388
:104D7000E2EEF0E0808181608083808188608083C2
:104D8000F80180818E7F8083888180618883DF91B4
:104D9000CF911F910F910895E8EDF0E080818F7E13
:104DA0008083E7EDF0E080818160808381E0809303
:104DB000D5020C948426E8EDF0E080818C7F80831E
:104DC0001092E20008951092DA001092E100089526
:104DD0001F920F920FB60F9211240BB60F922F93C2
:104DE0003F934F935F936F937F938F939F93AF9373
:104DF000BF93EF93FF938091E10082FF0BC08091FE
:104E0000E20082FF07C08091E1008B7F8093E10088
:104E10000E9454298091DA0080FF1FC08091D80041
:104E200080FF1BC08091DA008E7F8093DA00809132
:104E3000D90080FF0DC084E189BD86E189BD09B438
:104E400000FEFDCF81E08093D6020E94422305C080
:104E500019BC1092D6020E9450238091E10080FF7D
:104E600019C08091E20080FF15C08091E2008E7F22
:104E70008093E2008091E20080618093E200809163
:104E8000D80080628093D80019BC85E08093D60258
:104E90000E9454238091E10084FF30C08091E200A1
:104EA00084FF2CC084E189BD86E189BD09B400FE80
:104EB000FDCF8091D8008F7D8093D8008091E10054
:104EC0008F7E8093E1008091E2008F7E8093E200EC
:104ED0008091E20081608093E2008091D202882379
:104EE00011F084E007C08091E30087FF02C083E0F7
:104EF00001C081E08093D6020E9455238091E10099
:104F000083FF29C08091E20083FF25C08091E100EA
:104F1000877F8093E10082E08093D6021092D202D4
:104F20008091E1008E7F8093E1008091E2008E7F8E
:104F30008093E2008091E20080618093E20042E091
:104F400060E080E00E94E4258091F000886080931A
:104F5000F0000E945323FF91EF91BF91AF919F9179
:104F60008F917F916F915F914F913F912F910F9012
:104F70000BBE0F900FBE0F901F9018951F920F92AF
:104F80000FB60F9211240BB60F922F933F934F93AE
:104F90005F936F937F938F939F93AF93BF93CF93C1
:104FA000EF93FF93C091E900CF708091EC001092D5
:104FB000E9008091F000877F8093F00078940E9450
:104FC000FE271092E9008091F00088608093F00045
:104FD000C093E900FF91EF91CF91BF91AF919F9165
:104FE0008F917F916F915F914F913F912F910F9092
:104FF0000BBE0F900FBE0F901F9018951F93CF936D
:10500000DF93CDB7DEB7AA970FB6F894DEBF0FBE19
:10501000CDBFE7EDF2E08091F100819322E0EF3D1A
:10502000F207C9F70E946B238091E80083FF24C137
:105030002091D7023091D802832F90E08A309105D9
:1050400008F01AC1FC01EF56FF4F0C94BC2A20381F
:1050500021F0223809F010C108C08091D30290914C
:10506000D402992389F082600FC08091DB028F7097
:10507000873008F001C18093E9008091EB0085FB47
:10508000882780F91092E9009091E800977F90932B
:10509000E8008093F1001092F100CCC0822F8D7F48
:1050A00009F0EAC0222319F0223061F0E5C08091B6
:1050B000D902813009F0E0C0333009F080E08093FC
:1050C000D4022AC08091D902811126C02091DB022E
:1050D0002F708FEF820F863008F0CEC02093E9004A
:1050E0008091EB0080FF18C08091EB00333011F409
:1050F000806210C080618093EB0081E090E001C08D
:10510000880F2A95EAF78093EA001092EA008091CE
:10511000EB0088608093EB001092E9008091E8003A
:10512000877F8093E8000E941926A6C02111A4C0A1
:105130001091D9021F778091E3008078812B8093B2
:10514000E3008091E800877F8093E8000E941926A1
:105150008091E80080FFFCCF8091E300806880931D
:10516000E300112311F083E001C082E08093D602B6
:1051700083C02058223008F07FC08091D9029091DE
:10518000DA028C3D23E0920779F583E08A838AE294
:1051900089834FB7F894DE01139620E03EE051E298
:1051A000E32FF0E050935700E49120FF03C0E29515
:1051B000EF703F5FEF708E2F90E0EA3010F0C796EF
:1051C00001C0C0968D939D932F5F243149F74FBF47
:1051D0008091E800877F8093E8006AE270E0CE016A
:1051E00001960E94272515C06091DB027091DC02B8
:1051F000AE014F5F5F4F0E9457240097E9F1209165
:10520000E800277F2093E800BC0189819A810E94F1
:1052100084258091E8008B778093E8002DC02038AA
:1052200059F58091E800877F8093E8008091D20251
:105230008093F1008091E8008E7773CF21111CC01C
:105240009091D9029230C0F48091E800877F8093DA
:10525000E8009093D2020E9419268091D202811117
:1052600004C08091E30087FF02C084E001C081E0B8
:105270008093D6020E9457238091E80083FF0AC0E2
:105280008091E800877F8093E8008091EB00806246
:105290008093EB00AA960FB6F894DEBF0FBECDBF89
:1052A000DF91CF911F9108950895CF938091D602F9
:1052B0008823B1F08091E9008F709091EC0090FF0D
:1052C00002C090E801C090E0C92FC82B1092E900FD
:1052D0008091E80083FD0E94FE27CF70C093E90013
:1052E000CF91089504D06894B1118DC0089570D005
:1052F00088F09F5790F0B92F9927B751A0F0D1F0BF
:10530000660F771F881F991F1AF0BA95C9F712C048
:10531000B13081F077D0B1E0089574C0672F782F55
:105320008827B85F39F0B93FCCF3869577956795B4
:10533000B395D9F73EF490958095709561957F4F20
:105340008F4F9F4F0895E89409C097FB3EF49095C6
:105350008095709561957F4F8F4F9F4F9923A9F04E
:10536000F92F96E9BB279395F695879577956795DD
:10537000B795F111F8CFFAF4BB0F11F460FF1BC021
:105380006F5F7F4F8F4F9F4F16C0882311F096E9B4
:1053900011C0772321F09EE8872F762F05C0662362
:1053A00071F096E8862F70E060E02AF09A95660F1B
:1053B000771F881FDAF7880F9695879597F90895D4
:1053C00057FD9058440F551F59F05F3F71F04795B6
:1053D000880F97FB991F61F09F3F79F0879508959B
:1053E000121613061406551FF2CF4695F1DF08C0BA
:1053F000161617061806991FF1CF869571056105D7
:1054000008940895E894BB2766277727CB0197F97E
:1054100008950BD078C069D028F06ED018F095238D
:1054200009F05AC05FC01124EECFCADFA0F3959FE8
:10543000D1F3950F50E0551F629FF001729FBB277B
:10544000F00DB11D639FAA27F00DB11DAA1F649F27
:105450006627B00DA11D661F829F2227B00DA11DDA
:10546000621F739FB00DA11D621F839FA00D611D60
:10547000221F749F3327A00D611D231F849F600D81
:10548000211D822F762F6A2F11249F5750408AF0BA
:10549000E1F088234AF0EE0FFF1FBB1F661F771F46
:1054A000881F91505040A9F79E3F510570F014C0DD
:1054B000AACF5F3FECF3983EDCF38695779567952E
:1054C000B795F795E7959F5FC1F7FE2B880F911D64
:1054D0009695879597F9089597F99F6780E870E00A
:1054E00060E008959FEF80EC089500240A9416165A
:1054F000170618060906089500240A9412161306C2
:10550000140605060895092E0394000C11F488234F
:1055100052F0BB0F40F4BF2B11F460FF04C06F5F6B
:105520007F4F8F4F9F4F0895AA1BBB1B51E107C0B0
:10553000AA1FBB1FA617B70710F0A61BB70B881F23
:10554000991F5A95A9F780959095BC01CD010895B2
:1055500097FB072E16F4009407D077FD09D00E9420
:10556000942A07FC05D03EF4909581959F4F0895AD
:10557000709561957F4F0895EE0FFF1F0590F49190
:10558000E02D0994F999FECF92BD81BDF89A992733
:1055900080B50895A6E1B0E044E050E00C94FC2A08
:1055A000A8E1B0E042E050E00C94FC2A262FF999E3
:1055B000FECF92BD81BDF89A019700B4021639F072
:1055C0001FBA20BD0FB6F894FA9AF99A0FBE089543
:1055D0000396272F0E94D72A0E94D62A252F0E94A1
:1055E000D72A242F0C94D72A0196272F0E94D72A36
:1055F0000C94D62ADC01CB01FC01F999FECF06C040
:10560000F2BDE1BDF89A319600B40D924150504080
:08561000B8F70895F894FFCFEC
:1056180001000000FF34022808140A321E5022EE4E
:1056280022C3228D225322010201F5F4C6C7C5C444
:1056380037909192939495969735C0F3F2F1F000D4
:10564800404D3639EE06A1066B063206C505DE0565
:04565800F70510063C
:00000001FF
