:100000000C9411030C945A030C945A030C945A0345
:100010000C945A030C945A030C945A030C945A03EC
:100020000C945A030C945A030C94F9230C94CF2487
:100030000C94641A0C945A030C945A030C945A03AB
:100040000C945A030C945A030C945A030C945A03BC
:100050000C945A030C94CC1A0C945A030C945A0323
:100060000C945A030C945A030C945A030C945A039C
:100070000C945A030C945A030C945A030C945A038C
:100080000C945A030C945A030C945A030C945A037C
:100090000C945A030C945A03FB03FD030804FF035A
:1000A00001040304050407040A040C040E041904E3
:1000B000100412041404160418041B0469106910B7
:1000C000A310A310E21002119B129B1244119B1269
:1000D000F411F411681270129B12951201120112A0
:1000E0000112011201120112011201120112011278
:1000F0000112011201120112011201121312211236
:1001000028122F1239122E132E13401340133713B7
:100110004013401340132E132E133C13401340136F
:100120003C1340256725592667255926B325D62532
:1001300059262C263B2629001E001F0020002100E6
:100140002200230024002500260027002D002E0079
:1001500031002A004C005400550056002B001400BA
:100160001A000800150017001C0018000C001200EF
:1001700013002F003000000028005F0060006100C5
:100180006700390004001600070009000A000B0090
:100190000D000E000F003300340032000000280074
:1001A0005C005D005E005700E10064001D001B0064
:1001B0000600190005001100100036003700380055
:1001C000E500E500520059005A005B004700E000DE
:1001D000E300E2000000000000002C00000000002E
:1001E0000000E600E4000151500051004F006200A1
:1001F0006300580035003A003B003C003D003E00E3
:100200003F004000410042004300440045004600DA
:10021000490053000100010001000100010001003C
:100220000100005C0100010001000100010001006B
:1002300001000100000001000100010001000100B7
:10024000010001000100010001000100C25CC45C6A
:10025000C65C010001000100010000000100010076
:100260000100010001000100010001000100010086
:10027000C05CC35CC55CC75CBC5CBD5C0100A80025
:10028000A800A90001000100010001000100010017
:100290000100000000000000BE5C00000000000043
:1002A0000100010001000100AA000100010001009D
:1002B0000100010001000100010001000100010036
:1002C0000100010001000100010001000100010026
:1002D0000100010001000100010001000100010016
:1002E0000100010001000100010001000100010006
:1002F00001000000010001000100010001000100F7
:1003000001000100010001000100010001000100E5
:1003100001000100010001000000010001000100D6
:1003200001000100010001000100010001000100C5
:1003300001000100010001000100010001000100B5
:1003400001000100010001000100010001000100A5
:10035000000000000000010000000000000001009B
:100360000100010001000100010001000100010085
:100370006801F000B40078005A000000000000019D
:100380000101010101010101020202020202020255
:100390000203030303030303030404040404040526
:1003A00005050505060606060607070707080808E7
:1003B000080909090A0A0A0A0B0B0B0C0C0C0D0D93
:1003C0000D0E0E0F0F0F1010111111121213131426
:1003D00014151516161717181819191A1A1B1C1C9C
:1003E0001D1D1E1F1F2020212222232425252627F4
:1003F0002728292A2B2B2C2D2E2F2F303132333426
:100400003536363738393A3B3C3D3E3F4041424332
:1004100044464748494A4B4C4D4F5051525355560C
:1004200057585A5B5C5E5F606263646667696A6CBA
:100430006D6E707173747678797B7C7E8081838435
:1004400086888A8B8D8F91929496989A9B9D9FA176
:10045000A3A5A7A9ABADAFB1B3B5B7B9BBBDBFC17C
:10046000C4C6C8CACCCFD1D3D6D8DADCDFE1E4E643
:10047000E8EBEDF0F2F5F7FAFCFF0A0355004B004C
:100480003700380000001A0355004B0020004B00D5
:100490006500790062006F00610072006400730003
:1004A00000000403090409026D00040100A0FA0918
:1004B0000400000103010100092111010001224093
:1004C000000705810308000A090401000103010275
:1004D00000092111010001224D00070582030800D7
:1004E0000A090402000103000000092111010001B2
:1004F0002236000705830308000A090403000103EC
:1005000000000009211101000122390007058403C0
:1005100020000112011001000000084B554E00029E
:10052000000102000105010906A101050719E029E2
:10053000E7150025019508750181020508190129B3
:10054000059505750191029501750391010507193E
:100550000029F71500250195F875018102C00501F4
:100560000980A10185021601002603001A81002AD4
:100570008300751095018100C0050C0901A101855A
:1005800003160100269C021A01002A9C0275109590
:10059000018100C005010902A1010901A1000509AD
:1005A000190129051500250195057501810295019F
:1005B000750381010501093009311581257F9502F7
:1005C0007508810609381581257F95017508810612
:1005D000050C0A38021581257F950175088106C032
:1005E000C005010906A101050719E029E715002545
:1005F00001950875018102950175088101050819A9
:100600000129059505750191029501750391010573
:1006100007190029FF150026FF00950675088100BF
:10062000C00011241FBECFEFD0E2DEBFCDBF04B6A5
:1006300003FE27C08091C6029091C702A091C80214
:10064000B091C9028730904BA740B04BD1F41092C3
:10065000C6021092C7021092C8021092C90214BEBC
:1006600084B7877F84BF0FB6F894A8958091600007
:10067000886180936000109260000FBEE0E0F0EFB0
:10068000099511E0A0E0B1E0E2E7F0E500E00BBF82
:1006900002C007900D92A034B107D9F722E0A0E480
:1006A000B1E001C01D92A63CB207E1F70E942921EA
:1006B0000C9437280C9400000895089581E0089563
:1006C00081FF03C00B9A139A08950B98139808950D
:1006D00081E008950C945E030E941C132FEF84E3C5
:1006E0009CE0215080409040E1F700C000000C9455
:1006F000F21AFF920F931F93CF93DF938C01FC01AB
:10070000C081D18180919C01811113C08281882395
:1007100049F0CE010E943B18F82E682FCE010E94AE
:10072000E01704C0CE010E940F18F82EBE018F2DD5
:1007300004C0CE010E943B18BE010E943606EC01A7
:10074000B8010E946A03882309F442C2B801CE01AD
:100750000E94BC08882309F43BC2C73CFCE5DF07C4
:1007600041F4F8018281882309F432C20E94360DD7
:100770002FC2C83C8CE5D80708F000C1C03C9CE5FE
:10078000D90741F4F8018281882309F421C20E942B
:10079000500D1EC2C13CECE5DE0708F0ACC0C5310F
:1007A000FCE5DF0708F057C0C2308CE5D80708F435
:1007B0007BC0F8018281882309F46EC00E946B1906
:1007C000811102C00E9445190E94881990E09093FF
:1007D000B7028093B602FE01E350FC45E231F10519
:1007E00030F4E45BFF4F8091B6020C94E6278091D1
:1007F000B602816027C0826025C0846023C080610A
:1008000021C080621FC080641DC080681BC08460DE
:10081000886018C08E7F16C08D7F14C08B7F12C079
:100820008F7E10C08F7D0EC08F7B0CC08F770AC06B
:100830008B7F877F07C087FB222720F991E09227D3
:1008400090FB87F98093B6028091B6020E948C19C2
:100850000E941C13BDC1C531DC45C9F40E940C19AE
:10086000282FF801828140910001509101018823D5
:10087000B9F12A7A91E009F490E090934001911146
:100880002DC069E2CA010E94F6190E94D91881E0C0
:100890008093450180934601C801DF91CF911F915C
:1008A0000F91FF900C946803C1159CE5D90741F4A2
:1008B000F8018281882309F48BC10E946C0388C1EE
:1008C000C130DC4521F7F8018281882309F480C119
:1008D00080913E02816080933E027AC165E3D2CF6F
:1008E00080914001811102C069E201C065E3CA0143
:1008F0000E94011ACACFC33C8CE5D80741F4F80125
:100900008281882309F464C10E94C70C61C1C43C80
:100910009CE5D907C0F4C13CECE5DE0741F4F801E1
:100920008281882309F454C10E94AC0C51C1C23C9D
:10093000DC4509F0ACCFF8018281882309F448C175
:100940000E94AF0C45C1F8018281C53CFCE5DF0780
:1009500031F4882309F43CC10E94010D39C1C63C21
:10096000DC4530F4882309F433C10E94E60C30C121
:10097000882309F42DC10E941B0D2AC1CD3CECE552
:10098000DE07C1F4F8018281882309F421C10E94A5
:100990002C0B653171058105910540F00E942C0BEF
:1009A000673171058105910508F4BECF85E10E948C
:1009B000550C0EC1CE3CFCE5DF0708F077C0CA3C01
:1009C0008CE5D807B1F4F8018281882309F400C1CD
:1009D0000E942C0B663071058105910540F00E9444
:1009E0002C0B683071058105910508F49DCF86E0D8
:1009F000DECFCB3C9CE5D90728F5C83CECE5DE070B
:100A000039F4F8018281882309F4E2C081E0CFCF74
:100A1000C93CDC4509F03BCFF8018281882309F409
:100A2000D7C00E942C0B623071058105910540F002
:100A30000E942C0B653071058105910508F474CF77
:100A400082E0B5CFCB3C8CE5D807B1F4F8018281C8
:100A5000882309F4BDC00E942C0B69307105810503
:100A6000910540F00E942C0B6E30710581059105B7
:100A700008F45ACF89E09BCFCC3CDC4509F007CF86
:100A8000F8018281882309F4A3C00E942C0B6F30E7
:100A900071058105910540F00E942C0B64317105B0
:100AA0008105910508F440CF8FE081CFC03DECE592
:100AB000DE0719F5F8018281882351F01092450173
:100AC0000E94961A909342018093410182E034C0C3
:100AD0008091450181110FC08091410190914201A7
:100AE0000E94A21A883C910530F486E20E94E10E31
:100AF00086E20E94BD0F82E027C0C13DFCE5DF0712
:100B000030F1C43DECE5DE0709F444C0C53DFCE529
:100B1000DF0709F445C0C13DDC4509F0B8CEF80156
:100B20008281882361F0109246010E94961A909368
:100B300044018093430180E20E941C1049C08091CF
:100B400046018823A9F180E20E94231041C0CE3CD7
:100B50008CE5D80731F4F80182818823C9F188E156
:100B600026CFCF3CDC4509F092CEF8018281882364
:100B700079F10E942C0B693171058105910540F0D6
:100B80000E942C0B623271058105910508F4CCCED0
:100B900089E10DCFF80182818823D1F080E005C082
:100BA000F80182818823A1F082E00E94BD2110C05B
:100BB00080914301909144010E94A21A883C9105C2
:100BC00010F687E20E94E10E87E20E94BD0FBBCFC4
:100BD00080E0DF91CF911F910F91FF9008950C94C9
:100BE0000D09269A2E988FEF9FEF909387008093A0
:100BF000860082E28093800089E1809381000C94DA
:100C0000B31E0E94F1050C940B09282F80918000DF
:100C1000211108C08F7D8093800010928B0010926C
:100C20008A000895806280938000233019F48FEF4A
:100C30009FEF0FC083E090E0821B9109880F991FFE
:100C40002FEF3FEFA90102C0569547958A95E2F72D
:100C5000CA0190938B0080938A0008950C946003DE
:100C60000C942E0680E090E00895089593E1799F1A
:100C7000F00111249FE5899FE00DF11D1124E60F7D
:100C8000F11DEE0FFF1FEA5CFE4F859194910895D0
:100C9000880F991FFC01E059FC4F859194910895AC
:100CA000CF93DF930E9436060E941208EC01811553
:100CB00021E5920708F042C0811540E5940708F04D
:100CC0001BC1883E910500F5803E910508F0A6C144
:100CD000883A910570F4853A910508F099C0813001
:100CE000910509F49BC108F452C1049708F096C11C
:100CF0004EC18D3B910508F496C0803C910508F4E7
:100D000046C1805C9109E7C0811550E3950780F4E6
:100D1000811560E2960708F0DDC0803F910508F478
:100D200036C18F3F910511F008F078C1D06576C1CA
:100D3000C11580E4D80708F0DCC0D1C0811526E5D4
:100D4000920770F5811545E5940708F00CC18115EF
:100D500053E5950750F4811562E5960708F0E8C061
:100D6000D82FCC27C16FD06A59C1C11584E5D807E7
:100D700008F0F4C02C2F2695269580E2289F90013C
:100D80001124C370DD2781E090E0AC0102C0440F64
:100D9000551FCA95E2F7EA01C22BD32BDA683EC190
:100DA0008C3B2CE5920709F4E9C090F4811558E5D5
:100DB000950708F4ECC08115994508F4DAC0CC3ADF
:100DC0008CE5D80708F4E3C0CC5ADC45D46D26C1C5
:100DD0008F3B2CE5920709F4D7C060F48D3B5CE5AE
:100DE000950709F4CEC08E3B9C4509F0D0C0C0E009
:100DF000D2ED14C190568115904208F0C8C08D2FD5
:100E00008F710E948F08DD27D0628F71D82B06C1A9
:100E1000853A910509F4BEC0863A910509F0BDC036
:100E2000C2E8D0E4FBC0883A910509F4B9C0893A18
:100E3000910509F4B8C08A3A910509F4B7C08B3A14
:100E4000910509F4B6C08C3A910509F4B5C08B3B05
:100E5000910509F4B4C08C3B910509F4B3C08D3AF7
:100E6000910509F4B2C0803B910509F4B1C08E3AF6
:100E7000910509F4B0C08F3A910509F4AFC0813BE8
:100E8000910509F4AEC0823B910509F4ADC0833BE6
:100E9000910509F4ACC0843B910509F4ABC0853BD6
:100EA000910509F4AAC0863B910509F4A9C0873BC6
:100EB000910509F4A8C0883B910509F4A7C0893BB6
:100EC000910509F4A6C08A3B910509F4A5C0C0E0CC
:100ED000D4E4A4C09F700E944806EC019FC0CE01DC
:100EE0009927D3FF03C0EC01D86C98C0EC01D06CFB
:100EF00095C0DF70D06A92C0282F237081E090E007
:100F000002C0880F991F2A95E2F79C689E0144E071
:100F1000369527954A95E1F72370922BCF70C695A9
:100F2000C69540E2C49FE0011124C82BD92B76C09E
:100F3000282F2695269550E2259F90011124C370F5
:100F4000DD2781E090E0AC0102C0440F551FCA9537
:100F5000E2F7EA01C22BD32BDC6860C0DC2FCC2780
:100F6000C46FD06A5BC0CF71DD27DC2FCC27D06285
:100F700055C0DC2FCC27C06FD06A50C0C0E0D1ED87
:100F80004DC0C0E0D0ED4AC0C0E0D3ED47C0C0E0E6
:100F9000D0E044C0C1E8D0E441C0C3E8D0E43EC0E2
:100FA000C2EED4E43BC0C9EED4E438C0CAEED4E407
:100FB00035C0C5EBD4E432C0C6EBD4E42FC0C3EBDC
:100FC000D4E42CC0C4EBD4E429C0C7EBD4E426C0DD
:100FD000CCECD4E423C0CDECD4E420C0C3E8D5E409
:100FE0001DC0CAE8D5E41AC0C2E9D5E417C0C4E9F7
:100FF000D5E414C0C1E2D6E411C0C3E2D6E40EC009
:10100000C4E2D6E40BC0C5E2D6E408C0C6E2D6E42A
:1010100005C0C7E2D6E402C0CAE2D6E4CE01DF9141
:10102000CF9108958238910549F1B0F4813391054B
:1010300009F458C048F48932910509F44EC08A3247
:10104000910509F454C008958533910509F440C011
:101050008933910599F00895833E910529F138F47B
:10106000803E910591F0823E9105A1F00895863E63
:101070009105F9F0873E910531F108952091B6026E
:1010800020FD3AC021FD38C008958091B60280FD50
:1010900035C032C08091B60282FF32C08091B60264
:1010A00084FD30C083EE39C08091B60282FD28C035
:1010B000F5CF8091B60283FF27C08091B60284FDF0
:1010C00021C087EE2AC08091B60283FD1DC0F5CFF6
:1010D0008091B60285FD1AC01BC08091B60285FDC5
:1010E00017C014C08091B60286FD14C015C080914F
:1010F000B60286FD11C00EC080EE0FC089E30DC0A0
:1011000082EE0BC080E009C086EE07C089E205C010
:1011100085E303C08AE201C081E390E00895CF93A4
:10112000C82F0E94881990E09093B7028093B6026E
:1011300082FF0DC09C2F9871983019F4C77FC4604E
:1011400006C09C2F9471943011F4CB7FC86083FF4C
:101150000DC09C2F9871983119F4C77EC46106C0E8
:101160009C2F9471943111F4CB7EC86184FDC77EAD
:101170008C2FCF91089508950F931F93CF93FB0168
:101180002281211102C0C1E041C08C01C0915401F3
:10119000C11125C086319C45B1F70E94BB0881E092
:1011A000809354010E94961A9093530180935201A8
:1011B00010924701109249011092480110924B0180
:1011C00010924A0110924D0110924C0110924F0161
:1011D00010924E01109251011092500117C080914F
:1011E0005201909153010E94A21A883C910558F631
:1011F00090914701E92FF0E0EE0FFF1FE85BFE4FF3
:10120000118300839F5F90934701C0E08C2FCF91A3
:101210001F910F9108950C945C030C945D0385B7A6
:10122000806885BF85B7806885BFA6E2B1E041E0F0
:1012300050E025E02A0F8D91E82FE295EF70F0E065
:1012400031A18F70BA0102C0660F771F8A95E2F74D
:10125000CB01962F9095932391A392A1892B82A3E2
:101260002A13E9CFA3E1B1E041E050E023E12A0FE6
:101270008D91E82FE295EF70F0E031A18F70BA0107
:1012800002C0660F771F8A95E2F7CB01962F9095E3
:10129000932391A392A1892B82A32A13E9CFE9E694
:1012A000F1E0A5E5B1E011921192119211921D9217
:1012B0001D921D921D9271E0ED37F707A1F70C9476
:1012C00001062F923F924F925F926F927F928F9280
:1012D0009F92AF92BF92CF92DF92EF92FF920F93C5
:1012E0001F93CF93DF93CDB7DEB72B970FB6F8944C
:1012F000DEBF0FBECDBF26E231E03E832D8305E584
:1013000011E01A87098766246394712CC12CD12CB3
:101310007601C39429853A8538872F83D9012D908A
:101320003D904D905C90F9011082118212821382DF
:10133000AD81BE818D91BE83AD83E82FE295EF70C4
:10134000F0E091A18F70930102C0220F331F8A95A4
:10135000E2F73A832983822F892B81A392A12095DA
:101360002B87922392A330EA3A95F1F783E191E03B
:101370009C838B8320E030E0AB81BC819D91BC835A
:10138000AB83A92FA295AF70B0E090967C91A98510
:10139000BA858D909D90AD90BC909F70A30101C0C7
:1013A000440F9A95EAF7472369F4D701C601022E44
:1013B00004C0880F991FAA1FBB1F0A94D2F7AC0163
:1013C000BD0103C040E050E0BA01842A952AA62A54
:1013D000B72AA985BA858D929D92AD92BC9213973A
:1013E0002F5F3F4F2331310539F691A18B8589233A
:1013F00081A382A1B9818B2B82A329853A852C5F99
:101400003F4F3A872987EF81F88580819181A281BA
:10141000B381281639064A065B0649F0F1E0F093DD
:101420007D010E94961A90937F0180937E01298509
:101430003A852956314009F06DCF80917D0188238E
:10144000E1F080917E0190917F010E94A21A06979F
:10145000A0F029E631E0F80181919191A191B1913B
:101460008F01F90181939193A193B1939F01F1E0D1
:1014700009361F0781F710927D010E94EF0581E078
:101480002B960FB6F894DEBF0FBECDBFDF91CF9184
:101490001F910F91FF90EF90DF90CF90BF90AF9092
:1014A0009F908F907F906F905F904F903F902F9084
:1014B000089524E0829FC0011124FC01E759FE4FEA
:1014C00060817181828193810895089521B3342FC1
:1014D0003095232331B3432B3FB7F894FC01680FB9
:1014E000791FE617F70789F0819198E041BB00006A
:1014F00000C087FF21BB880F000000C000C000C0F3
:1015000021BB00C09A9591F7ECCF3FBF089520B35F
:10151000242B20BB9B01220F331F620F731F0E94DD
:10152000660A87EC90E00197F1F700C0000008958B
:1015300040E80C94870AEF92FF920F931F93CF938A
:10154000DF93E901662309F44BC0242F30E0EFEF6D
:10155000F0E0E61BF109B901E69F9001E79F300D2D
:10156000F69F300D1124232F8B01031B11095CE31F
:10157000E52EF12CB7010E94BE27FB01BC01069F9E
:10158000C001079F900D169F900D1124B7010E9476
:10159000BE27E230F105B1F040F4309779F0319791
:1015A00011F5832F242F461B21C0E430F105A1F053
:1015B00068F03597C1F4842F861B18C0832F262F1F
:1015C000230F14C0862F830FE42F03C0E42FE61BE4
:1015D000842F432F2E2F0AC0842F462F430F06C07F
:1015E000842F242F03C080E020E040E0E42FF0E0CF
:1015F000E658FC4F4491E22FF0E0E658FC4F9491FE
:10160000E82FF0E0E658FC4FE49149839883EA83A1
:10161000DF91CF911F910F91FF90EF90089588E097
:1016200090E00C94F727AB01BC0188E090E00C94AB
:101630001528ECE6F2E083E0808310926D028FEFD4
:101640008283838360916C0270916D0280916E023F
:1016500090916F020C94130B60916C0260FF06C0B6
:1016600066956F7370E080E090E0089560E070E050
:10167000CB01089580916C0280FF06C064E170E0A8
:1016800084E792E00C94980A80E090E0FC01EC582A
:10169000FD4F11821082128203968C339105B1F7AF
:1016A000EDCF20E030E0F901EC58FD4F81836083FD
:1016B00042832D5F3F4F2C333105A9F70C943A0B31
:1016C000EF92FF920F931F93CF93DF9300D01F925F
:1016D000CDB7DEB700916C0210916D0220916E02C1
:1016E00030916F0200937002109371022093720286
:1016F0003093730220916C0220FF21C0042FF62E3C
:10170000E92E182F9E012F5F3F4F0E949B0A809168
:10171000700210FB87F98093700216958091710218
:101720008078182BE0FA17F910937102F092720288
:10173000009373024B8169818A810E94510B0F9043
:101740000F900F90DF91CF911F910F91FF90EF902D
:1017500008958F929F92AF92BF92CF92DF92EF92B5
:10176000FF920F931F93CF93DF93EC01062F142F5B
:1017700080916C0280FF8CC0982F9E77923021F46C
:10178000CE010E94600B5AC0E82FE695EF739EE3EE
:101790009E0F9F73943018F410916F024FC09AE31C
:1017A0009E0F9F73993070F4881F8827881F90912F
:1017B0006D02292F220FC22FC82B97FB992790F972
:1017C000D92F3CC087E28E0F8F738A30B8F5F0E0D6
:1017D0007997E0FD02C021E001C02FEFEE7FE059D4
:1017E000FC4F8591949164E170E00E94BE2726032E
:1017F0006001279FD00C11244E0188E9881A8EEFD2
:10180000980A84E7E82E82E0F82E98E6A92EBB24F9
:10181000B394C401B5010E94BE279701412F602FE8
:101820000E949B0A8C0C9D1C93E0E90EF11C80EB3E
:10183000E81682E0F80669F70E943A0B80916C0284
:101840009C2FC0FB87F980936C02969580916D0266
:101850008078892BD0FB87F980936D0200936E020C
:1018600010936F0260916C0270916D0280916E0214
:1018700090916F02DF91CF911F910F91FF90EF90A8
:10188000DF90CF90BF90AF909F908F900C94130BF0
:10189000DF91CF911F910F91FF90EF90DF90CF904C
:1018A000BF90AF909F908F90089580916C0280FFC1
:1018B00021C08178826080936C0260916C0270918B
:1018C0006D0280916E0290916F020E94130B8091C5
:1018D0006C02881F8827881F90916D02292F220F84
:1018E00097FB992790F940916F0260916E02822BCD
:1018F0000C94A90B089580913E02816080933E0272
:1019000081E0809380010E946B19811104C00E94C4
:1019100045190E94190B0E940F0B60936C02709383
:101920006D0280936E0290936F026E7761F40E9455
:10193000190B0E940F0B60936C0270936D028093E1
:101940006E0290936F0280916C0280FF04C08695B6
:101950008F730C94550C089581E00C94550CECE6B3
:10196000F2E02081221F2227221F30916D02432F97
:10197000440F842F822B37FB992790F90A9668E64B
:1019800071E00E94D227438162810C94A90B2091BF
:101990006C02221F2227221F30916D02432F440F19
:1019A000842F822B37FB992790F98A3091051CF4FC
:1019B000825A9E4F01C00A9768E671E00E94D227C2
:1019C00040916F0260916E020C94A90B60916E02BF
:1019D000862F90E08F3E910514F46F5E01C06FEF8B
:1019E00080916C02881F8827881F90916D02292F93
:1019F000220F97FB992790F940916F02822B0C944C
:101A0000A90B60916E02862F90E0419714F061510E
:101A100001C060E080916C02881F8827881F909128
:101A20006D02292F220F97FB992790F940916F02A1
:101A3000822B0C94A90B40916F02842F90E08F3E73
:101A4000910514F44F5E01C04FEF80916C02881F26
:101A50008827881F90916D02292F220F97FB9927C5
:101A600090F960916E02822B0C94A90B40916F0249
:101A7000842F90E0419714F0415101C040E08091E3
:101A80006C02881F8827881F90916D02292F220FD2
:101A900097FB992790F960916E02822B0C94A90B09
:101AA00080916C02982F909590FB80F980936C0246
:101AB00060916C0270916D0280916E0290916F0244
:101AC0000E94130B80916C0280FF04C086958F7377
:101AD0000C94550C2FEF80E792E02150804090400D
:101AE000E1F700C000000C943A0B909386018093BC
:101AF00085010895E0918501F0918601309721F0EC
:101B00000190F081E02D099480E00895E091850135
:101B1000F0918601309721F00280F381E02D099445
:101B20000895E0918501F0918601309721F00480BD
:101B3000F581E02D0994089520918301309184016D
:101B40008217930771F09093840180938301E09151
:101B50008501F0918601309721F00680F781E02D14
:101B60000994089520918101309182018217930791
:101B700071F09093820180938101E0918501F09151
:101B80008601309721F00084F185E02D09940895B5
:101B900008950C94C80D0E948D1A0E940F090E948E
:101BA0005F1B0E94B31E0C947B0C4F925F926F924E
:101BB0007F929F92AF92BF92CF92DF92EF92FF926D
:101BC0000F931F93CF93DF93CDB7DEB72E970FB64A
:101BD000F894DEBF0FBECDBF0E94610948E8A42E75
:101BE00041E0B42E00E010E0902E802F0E94590AB0
:101BF000F501C190D190E190F1905F01C626D72602
:101C0000E826F926C114D104E104F104B1F40F5F10
:101C10001F4F0530110541F78FEF89838A831B829F
:101C20000E94961A8160782F9D838C8349815A8106
:101C30006B818D810E94B30E5DC020913E0221FF19
:101C40000AC06B877C878D879E870E94650A9E8568
:101C50008D857C856B8540E050E026013701042EA0
:101C600004C076946794579447940A94D2F740FE40
:101C70003AC04E839F82C12CD12C7601C39404C0FC
:101C8000CC0CDD1CEE1CFF1C4A95D2F72601370157
:101C9000462257226822792281E045284628472893
:101CA00009F480E088870E94961A8160782F9A87CD
:101CB00089874E815F8168858A850E94B30E000FF7
:101CC000111F000F111FF801E857FE4F808191810D
:101CD000A281B381C826D926EA26FB26C082D182FA
:101CE000E282F38207C04F5F5F4F4331510509F035
:101CF000B4CF8DCF0E94021E109187010E947A0DF1
:101D00001817D9F00E947A0D809387012E960FB68E
:101D1000F894DEBF0FBECDBFDF91CF911F910F9121
:101D2000FF90EF90DF90CF90BF90AF909F907F900B
:101D30006F905F904F900C9430062E960FB6F894EB
:101D4000DEBF0FBECDBFDF91CF911F910F91FF90EE
:101D5000EF90DF90CF90BF90AF909F907F906F906B
:101D60005F904F900895CF93DF93CDB7DEB72B9759
:101D70000FB6F894DEBF0FBECDBF4F83588769877B
:101D80007A878B87DE01119686E0FD0111928A9594
:101D9000E9F785E0FE01379601900D928A95E1F70B
:101DA00049815A816B817C818D819E810E94B4150D
:101DB0002B960FB6F894DEBF0FBECDBFDF91CF914B
:101DC0000895882309F4D8C0682F823879F40E94D6
:101DD0007A0D81FDD1C069E38091000190910101EC
:101DE0000E94F6190E94D91869E310C08338B1F433
:101DF0000E947A0D80FDC0C063E580910001909142
:101E000001010E94F6190E94D91863E58091000132
:101E1000909101010E94011A0C94D918843879F428
:101E20000E947A0D82FDA8C067E480910001909124
:101E300001010E94F6190E94D91867E4E7CF8CEFE0
:101E4000860F813A38F480910001909101010E943F
:101E5000F619E2CF80E2860F883048F4677081E09F
:101E600001C0880F6A95EAF70E940F19D5CF8BE55C
:101E7000860F833070F4653A29F0663A31F083E8D2
:101E800090E005C081E890E002C082E890E00C9408
:101E90009C0D88E5860F853108F06EC0683A61F1C7
:101EA000693A69F16A3A71F16B3A79F16C3A81F108
:101EB0006B3B89F16C3B91F16D3A99F1603BA1F17B
:101EC0006E3AA9F16F3AB1F1613BB9F1623BC1F1F0
:101ED000633BC9F1643BD1F1653BD9F1663BE1F16C
:101EE000673BE9F1683BF1F1693BF9F16A3B09F4C1
:101EF0003FC080E090E03EC082EE90E03BC089EEC3
:101F000090E038C08AEE90E035C085EB90E032C0BA
:101F100086EB90E02FC083EB90E02CC084EB90E048
:101F200029C087EB90E026C08CEC90E023C08DECBC
:101F300090E020C083E891E01DC08AE891E01AC0DB
:101F400082E991E017C084E991E014C081E292E057
:101F500011C083E292E00EC084E292E00BC085E201
:101F600092E008C086E292E005C087E292E002C0FB
:101F70008AE292E00C94B20D0895882309F45BC0C4
:101F8000682F823879F40E947A0D81FF54C069E38A
:101F900080910001909101010E94F6190E94D918C8
:101FA00069E310C08338B1F40E947A0D80FF43C00A
:101FB00063E580910001909101010E94F6190E9451
:101FC000D91863E580910001909101010E94011AE6
:101FD0000C94D918843879F40E947A0D82FF2BC0B2
:101FE00067E480910001909101010E94F6190E941E
:101FF000D91867E4E7CF8CEF860F813A18F380E2B7
:10200000860F883048F4677081E001C0880F6A95B8
:10201000EAF70E941519DCCF8BE5860F833020F498
:1020200080E090E00C949C0D685A653120F480E0CB
:1020300090E00C94B20D0895882321F00E940F19AE
:102040000C94D9180895882321F00E9415190C9436
:10205000D91808954F925F926F927F92AF92BF927C
:10206000CF92DF92EF92FF920F931F93CF93DF9364
:102070001F92CDB7DEB77C01A72EFC01058102952A
:102080000F701281112321F069830E942C1969813C
:1020900069830E94D2186981882381F0112371F02D
:1020A00080E2860F883050F082E00E94BB180E94C8
:1020B000D21891E0B82EB926698101C0B12CCA2C82
:1020C000C2948FE0C822D12CF601E25AFF4F0C9443
:1020D000E6278A2D807F0A2D0F70882311F0029544
:1020E000007F1123C1F0002309F4DDC180E2860FD7
:1020F000883010F0611105C0802F69830E940F198C
:1021000004C0802F69830E941F19698169830E941E
:10211000D9186981C8C1862F69830E94BD0F698162
:10212000002309F408C280E2860F883010F06111A4
:1021300004C0802F0E94151903C0802F0E9425190A
:102140000E94D918F8C18A2D807F9A2D9F70803205
:1021500011F4892F03C0892F8295807F662319F09F
:102160006130B1F01FC0112349F0002309F452C1BE
:10217000013009F04FC10E943F19DDC1002319F061
:10218000013009F4D8C189830E944219898148C16C
:10219000112321F0063008F0CEC13CC1053008F013
:1021A000CAC13EC1112351F0002309F433C1F70124
:1021B000958190FF78C19F7095832CC1002309F40D
:1021C0002FC182C18A2D86958695837090E00097F5
:1021D00019F0019761F0AFC1112321F0862F9A2DDC
:1021E000937002C080E090E00E949C0DB4C1112366
:1021F00021F0862F9A2D937002C080E090E00E941B
:10220000B20DA9C11123F9F0653F51F0663F71F09D
:10221000643FA9F48091B0029091B10281600BC03B
:102220008091B0029091B102826005C08091B002AD
:102230009091B10284609093B1028093B002862F96
:102240000E940A1D1EC0653F51F0663F71F0643F59
:10225000A9F48091B0029091B1028E7F0BC0809161
:10226000B0029091B1028D7F05C08091B002909133
:10227000B1028B7F9093B1028093B002862F0E94AF
:10228000721D0E94F71D67C18A2D837009F052C02C
:1022900011115DC1862F829586958770880F880FF2
:1022A000962F9F70492E512C612C712C082E04C042
:1022B000440C551C661C771C0A94D2F764FF14C0AA
:1022C0000FE010E020E030E0B901A80104C0440FA5
:1022D000551F661F771F8A95D2F7CB01BA0160950B
:1022E00070958095909503C060E070E0CB012A2D39
:1022F00026952695237030E02230310569F0233091
:10230000310589F0642975298629972921303105FD
:1023100071F00E94F7161BC1642975298629972937
:102320000E94091714C10E94F716C301B2010E944E
:10233000E5160DC1112319F08A2D817001C0869513
:10234000882309F404C1862F829586958770880FAB
:10235000880F962F9F70492E512C612C712C082EBE
:1023600004C0440C551C661C771C0A94D2F764FF09
:1023700014C00FE010E020E030E0B901A80104C073
:10238000440F551F661F771F8A95D2F7CB01BA01FC
:10239000609570958095909503C060E070E0CB01EA
:1023A0002A2D269526952370422F50E04230510564
:1023B00069F04330510589F06429752986299729E8
:1023C0004130510571F00E94BB17C1C064297529C5
:1023D000862997290E94CD17BAC00E94BB17C30156
:1023E000B2010E94A917B3C0862F90E0FC01E05E05
:1023F000F109E531F10508F052C0E259FF4F0C94A4
:10240000E627062F0F708A2D8F71112331F00E945D
:102410004217802F0E941C108EC00E946317802FCD
:102420000E94231088C0112341F0053008F083C0BA
:102430008A2D8F710E9488177EC0063008F07BC0FD
:10244000F7CF112339F08A2D8F710E94421773C084
:102450001123C9F38A2D8F710E9463176CC0112359
:1024600029F08A2D8F710E942D1765C00E942817B0
:1024700062C0112351F01A2D1F71812F0E94421743
:1024800063E0812F0E94B21856C081E00E94BB1801
:10249000023008F450C082E00E94BB184CC01123E7
:1024A00031F0002381F2862F0E94E10E44C0002308
:1024B00089F2693349F45FEF77EE83E05150704061
:1024C0008040E1F700C00000862F0E94BD0F33C09E
:1024D0004A2D4F70C7010E9432060E9458163BC019
:1024E000111139C04A2D4F7050E042305105B9F0FA
:1024F0004CF44115510581F041305105E1F40E9441
:10250000ED1E29C04330510569F04430510599F45E
:10251000862F0E943F1F1FC00E94D01E1CC00E9419
:10252000091F19C00E941C1F16C04A2D4F70C701F9
:102530000E94350610C098E0C916D10441F05CF045
:10254000FAE0CF1AD10822E0C216D10420F40E948A
:102550007A0D0E943006BB2001F10E94AE1880FD6A
:102560001CC0F70112820E94A8180E944217C701DE
:102570000E94DD120E94A8180F90DF91CF911F9149
:102580000F91FF90EF90DF90CF90BF90AF907F9032
:102590006F905F904F900C9463170F90DF91CF91E5
:1025A0001F910F91FF90EF90DF90CF90BF90AF9071
:1025B0007F906F905F904F9008950F931F93CF93EC
:1025C000DF93EC01888199812B813C81232BB9F029
:1025D0009F3F11F48F3F99F0CE010E947903882329
:1025E00071F0688179818A810E9485188C010E942E
:1025F000DF170E94E216B801CE010E942A10DF9177
:10260000CF911F910F9108950E942C190E943C199F
:1026100080910001909101010E940C1A0E94D9182A
:102620000E94A71E0E94F71D80E090E00E949C0D72
:1026300080E090E00C94B20D0E941C190C940413DD
:102640000E947A18E92FE295EF70F0E03297EE30B1
:10265000F105B0F4ED57FF4F0C94E627803F91F061
:1026600018F4803E68F40EC0843F51F40BC0803EE5
:1026700048F0813F29F406C093FB882780F908952C
:1026800080E0089581E00895CF93DF9300D000D0DB
:102690001F92CDB7DEB70F900F900F900F900F9055
:1026A000DF91CF910895CF93DF9300D000D000D079
:1026B000CDB7DEB726960FB6F894DEBF0FBECDBFFE
:1026C000DF91CF9108951F93CF93DF93C0919D0128
:1026D00016E080919E01C81799F0D0E01C9FF00190
:1026E0001D9FF00D1124E156FE4F40815181628102
:1026F0007381848195810E9453132196C770E9CF1D
:10270000DF91CF911F9108954091CF015091D00159
:102710006091D1017091D2018091D3019091D40147
:102720000C9453138091D40182958F7009F054C09A
:102730008091D101882309F44FC080919D01A0911F
:102740009E016091CF017091D0014091D2015091D2
:10275000D301B6E08A1709F43FC090E04115510556
:10276000C1F17F3F11F46F3FA1F1B89FF001B99F14
:10277000F00D1124E156FE4F218172132AC02081F1
:10278000621327C02281211124C0238134812417A0
:10279000350710F421503109241B350B283C310535
:1027A000C0F42091D4012F7020612093D40126E041
:1027B000289FF001299FF00D1124EC55FE4F8081D8
:1027C0008F70806180838FEC91E00E94DD120C9409
:1027D000631301968770BECF0895CF92DF92EF9278
:1027E000FF920F931F93CF93DF93CDB7DEB762971E
:1027F0000FB6F894DEBF0FBECDBF8C0185E0F801A7
:10280000DE011D9601900D928A95E1F7D8014C9159
:1028100011965C91119712966C9112971396CD9028
:10282000DC9014973091CF017091D0018091D2014A
:102830009091D301009709F46BC17F3F19F43F3F9A
:1028400009F466C1E090D101EE2009F4C0C02091E6
:10285000D401C816D90628F0F601E81BF90BCF0100
:1028600004C0809590958C0D9D1DFF24F394883CA9
:10287000910578F0F12C207F09F0C6C07C2DD98A13
:10288000C88A89890E9444138FEC91E00E94DD126E
:10289000B1C0822F807F09F046C0751314C0341375
:1028A00012C0611110C02F7020612093D4010E94CA
:1028B00084138FEC91E00E94DD128091D401D80145
:1028C00015968C932EC0CD2819F15F3F11F44F3F20
:1028D000F9F0F62E61111CC080919D0120919E019E
:1028E00036E0821709F45AC090E0389FF001399F12
:1028F000F00D1124E156FE4F7181571306C070810F
:10290000471303C07281711103C001968770E9CF2C
:10291000F62E662309F418C18091D401816080935A
:10292000D401F12C11C1751308C0341306C0611114
:1029300004C08091D401D801C3C04D875E878D85C6
:102940009E856A8B0E9420136A898823E1F16623A1
:10295000D1F12091D401822F82958F7090E002975F
:1029600074F08091CF019091D00198878F83198660
:10297000DB86CA862C87CE0107960E94DD1286E090
:10298000F801AFECB1E001900D928A95E1F70E9459
:1029900092130E948413FF24F394D6C04D875E8760
:1029A0008D859E850E947A18292F22952F7030E000
:1029B000223031050CF0BCC09F7009F0B6C0805EBB
:1029C000883008F4C1C0C8010E94DD12E4CFC816E7
:1029D000D90608F453C0F601E81BF90BCF01883C77
:1029E000910508F450C0F12C7C2DD98AC88A8989B8
:1029F0000E944413EFECF1E086E0DF011D928A951E
:102A0000E9F70E948413A0C0751314C0341312C0D8
:102A1000611110C08091D401F8018583C8010E9422
:102A2000DD1286E0EFECF1E0DF011D928A95E9F717
:102A3000FE2C8AC04D875E878D859E856A8B0E949D
:102A400020136A89882309F4BECF662309F4BBCF1B
:102A50002091D401822F82958F7090E002970CF420
:102A60008ECF8091CF019091D0019A8389831B8270
:102A7000DD82CC822E83CE0101967FCF809590950A
:102A80008C0D9D1DACCFF62E662309F49CCF7513DB
:102A90002EC034132CC02091D40120FD1FC0822FE2
:102AA00082958F70D9F0D80115962C9315978F3099
:102AB00049F08F5F982F9295907F822F8F70892B8E
:102AC00015968C93C8010E94DD1286E0F801AFECE8
:102AD000B1E001900D928A95E1F793CF86E0F8017D
:102AE000AFECB1E001900D928A95E1F72DC04D87D2
:102AF0005E878D859E850E942013811140CF809135
:102B0000D40181608093D401C8010E94DD121CC0F1
:102B1000662309F458CF4D875E878D859E850E9478
:102B20002013882309F44FCF2ACF811148CF0CC03E
:102B3000243031050CF047CF9F7009F440CFF801E5
:102B40009581907F09F03BCF8F2D62960FB6F89458
:102B5000DEBF0FBECDBFDF91CF911F910F91FF90D0
:102B6000EF90DF90CF9008951F93CF93DF93CDB771
:102B7000DEB72C970FB6F894DEBF0FBECDBF4F83E4
:102B8000588769877A878B879C87CE0107960E9432
:102B9000ED13882369F08F8198852A853B85232B47
:102BA000F1F19F3F09F063C08F3F09F060C037C06B
:102BB00086E0FE013796DE01119601900D928A950E
:102BC000E1F76F817885EA85FB85309741F17F3F9A
:102BD00011F46F3F21F120919E0130E0C90101966F
:102BE0008770992740919D0150E08417950709F45B
:102BF00047C069837A83FD83EC8396E0929FD0017E
:102C0000939FB00D1124A156BE4FFE013196019045
:102C10000D929A95E1F780939E010E94631316E04E
:102C200080919D0190919E018917C1F1189FC0016B
:102C3000112481569E4F0E94ED13882379F1E09173
:102C40009D011E9FF0011124E156FE4F40815181EC
:102C500062817381848195810E94531380919D01CB
:102C600090E001968770992780939D01D9CF4F817D
:102C7000588569857A858B859C850E945313CFCFB3
:102C80000E941C1310929E0110929D01EFECF1E046
:102C900086E0DF011D928A95E9F7C1CF2C960FB629
:102CA000F894DEBF0FBECDBFDF91CF911F91089585
:102CB000EF92FF920F931F93CF93DF938C01892B99
:102CC00009F46CC0F12CEE24E394E8012196F8019C
:102CD0008491843740F4843008F051C0813081F011
:102CE000823019F15BC0853709F444C0A8F19CE734
:102CF000980F903708F052C08F770E94BD0F41C0E7
:102D00000E5F1F4FFE01C49180E28C0F883048F4A3
:102D1000C7708E2D01C0880FCA95EAF70E942F193F
:102D200014C08C2F0E94E10E2DC00E5F1F4FFE01BC
:102D3000C49180E28C0F883058F4C7708E2D01C08A
:102D4000880FCA95EAF70E9435190E94D9181AC04F
:102D50008C2F0E94BD0F16C00E5F1F4FFE01C49145
:102D6000CC2381F08FE99FE00197F1F700C00000CC
:102D7000C150F6CF0E5F1F4FFE01F49003C00E94BA
:102D8000E10E8E018F2D882309F49FCFEFE9FFE03C
:102D90003197F1F700C000008150F5CFDF91CF915E
:102DA0001F910F91FF90EF90089508950E94D516FE
:102DB0006093150270931602809317029093180285
:102DC0000C94041308950C94D6160F931F9300913E
:102DD0001502109116022091170230911802602BF3
:102DE000712B822B932B1F910F910C94D6160F935E
:102DF0001F93009115021091160220911702309135
:102E0000180260237123822393231F910F910C9446
:102E1000D6160F931F930091150210911602209160
:102E200017023091180260277127822793271F917C
:102E30000F910C94D61608950E941B1760931102EF
:102E40007093120280931302909314020C94041353
:102E500060E070E0CB010C941C170F931F9341E0CE
:102E600050E060E070E08A019B0104C0000F111F78
:102E7000221F331F8A95D2F7C901B8011F910F9104
:102E80000C941C170F931F9341E050E060E070E03A
:102E900004C0440F551F661F771F8A95D2F7809193
:102EA000110290911202A0911302B09114028A01B2
:102EB0009B01082B192B2A2B3B2BC901B8011F9111
:102EC0000F910C941C170F931F9341E050E060E0AA
:102ED00070E004C0440F551F661F771F8A95D2F714
:102EE00040955095609570958091110290911202D5
:102EF000A0911302B09114028A019B0108231923A7
:102F00002A233B23C901B8011F910F910C941C1770
:102F10000F931F9341E050E060E070E004C0440F65
:102F2000551F661F771F8A95D2F7809111029091E5
:102F30001202A0911302B09114028A019B0108278A
:102F400019272A273B27C901B8011F910F910C941B
:102F50001C170F931F9300911102109112022091E0
:102F6000130230911402602B712B822B932B1F9133
:102F70000F910C941C170F931F9300911102109145
:102F800012022091130230911402602371238223D4
:102F900093231F910F910C941C170F931F93009173
:102FA0001102109112022091130230911402602735
:102FB0007127822793271F910F910C941C17089556
:102FC00023E1929F800D1124A82FA695A695A69582
:102FD000877051E001C0550F8A95EAF785E0A89FF8
:102FE000D001112420E030E070E0F901EA0FFB1F6E
:102FF000EB52FE4F4081CB01022E02C09695879581
:103000000A94E2F781709927819584278523842784
:1030100080832F5F3F4F2530310539F7089523E135
:10302000929F800D1124682F669566956695982F5E
:10303000977085E0689FB001112440E050E080E087
:10304000FA01E60FF71FEB52FE4F208130E0092E08
:1030500002C0369527950A94E2F721703327042E93
:1030600001C0220F0A94EAF7822B4F5F5F4F453071
:10307000510531F70895CF92DF92EF92FF920F93AF
:103080001F93CF93DF938C01C0901502D09016024E
:10309000E0901702F09018028091110290911202B4
:1030A000A0911302B0911402C82AD92AEA2AFB2A55
:1030B000CFE1D0E0D701C6010C2E04C0B695A7958C
:1030C000979587950A94D2F780FF06C0B8018C2F98
:1030D0000E945006019721F4219760F780E001C01B
:1030E0008C2FDF91CF911F910F91FF90EF90DF9088
:1030F000CF900895CF93DF93EC010E943B18BE015F
:103100000E945006DF91CF9108951F93CF93DF93D4
:10311000EB0190919C01992321F0CB010E947A1838
:1031200013C0882349F0CB010E943B18182F682F49
:10313000CE010E94E01704C0CB010E940F18182F87
:10314000BE01812F0E945006DF91CF911F910895FB
:10315000809119028595859585950895809119022C
:103160008770089598E0899F90011124262B209361
:1031700019020C94421720911902809582238093A2
:103180001902982F977069F430E0482F082E000C30
:10319000550B2417350729F08595859585950C9451
:1031A0006317089590911902977081E009F480E007
:1031B0000895E0910001F091010180913D0280832A
:1031C000E0910001F0910101908180913C02892BF6
:1031D0008083E0910001F0910101908180913B0298
:1031E000892B808380911A02882381F0E09100016D
:1031F000F09101019081892B808380910001909151
:1032000001010E949A19811110921A028091000105
:10321000909101010C94860D80913D02089590914A
:103220003D02892B80933D020895809590913D0247
:10323000892380933D02089510923D020895909154
:103240003C02892B80933C020895809590913C022A
:10325000892380933C02089510923C020895909136
:103260003B02892B80933B020895809590913B020D
:10327000892380933B02089510923B020895809326
:103280001A02089510921A0208956DEE7EEF80E002
:1032900090E00E94212860E082E090E00E940328F4
:1032A00060E083E090E00E94032860E084E090E02A
:1032B0000E94032860E085E090E00E94032860E01F
:1032C00086E090E00E94032840E050E0BA0188E0E8
:1032D00090E00C94152880E090E00E94FD2721E00A
:1032E0008D3E9E4F09F020E0822F089582E090E00D
:1032F0000C94EF27682F82E090E00C94032883E081
:1033000090E00C94EF27682F83E090E00C94032862
:1033100084E090E00C94EF27682F84E090E00C9418
:10332000032886E090E00C94EF27682F86E090E079
:103330000C940328FC0131969C01205E3F4F80E0F5
:10334000919191118F5FE217F307D1F708959C01D6
:10335000FC0132969FEF80E04191461789F09F3F34
:1033600019F4411101C0982F8F5F8E31A9F79F3F4B
:1033700039F0F901E90FF11D97FDFA95628308957F
:103380000895FC01329680962081261301C0108298
:103390003196E817F907C1F70895262F2695269547
:1033A00026952F3168F4FC01E20FF11D677021E0D2
:1033B00030E001C0220F6A95EAF78181282B218332
:1033C0000895262F2695269526952F3170F4FC0119
:1033D000E20FF11D677021E030E001C0220F6A9515
:1033E000EAF72095818128232183089520911201F5
:1033F000222329F02091B60227FD0C94CD190C94BC
:10340000A71920911201222329F02091B60227FD4D
:103410000C94E1190C94C119FC013196809611921B
:10342000E817F907E1F708958091BD02843051F162
:1034300010923F0220E488E190E00FB6F894A8953E
:10344000809360000FBE2093600080E00E9405061C
:1034500080E00E94300683B7817F846083BF83B79A
:10346000816083BF7894889583B78E7F83BF0FB6C2
:10347000F894A89580916000886180936000109214
:1034800060000FBE089508950895CF930E94431AD7
:103490000E9461090E94441AC0E08C2F0E94590AC0
:1034A000672B682B692B29F4CF5FC530B1F780E01B
:1034B00001C081E0CF9108950E941C130E94B31EA9
:1034C0000E947A0D0C9430061F920F920FB60F9245
:1034D00011248F939F93AF93BF9380913F028111EB
:1034E00013C08091B2029091B302A091B402B09146
:1034F000B5024196A11DB11D8093B2029093B30213
:10350000A093B402B093B502BF91AF919F918F91F8
:103510000F900FBE0F901F90189582E084BD93E02E
:1035200095BD9AEF97BD80936E0008952FB7F894DC
:103530008091B2029091B302A091B402B091B50211
:103540002FBF0895CF92DF92EF92FF920F931F93B8
:103550002FB7F8944091B2025091B3026091B40237
:103560007091B5022FBF6A017B01EE24FF248C010C
:1035700020E030E0C016D106E206F30610F4415018
:1035800051099A01281B390BC9011F910F91FF9016
:10359000EF90DF90CF90089578941F920F920FB61E
:1035A0000F9211248F939F93AF93BF938091B20298
:1035B0009091B302A091B402B091B5020196A11D01
:1035C000B11D8093B2029093B302A093B402B09362
:1035D000B502BF91AF919F918F910F900FBE0F9049
:1035E0001F9018950E947B23F8942FEF87EA91E6AD
:1035F000215080409040E1F700C0000087E090EB50
:10360000DC018093C6029093C702A093C802B093D6
:10361000C9029CE088E10FB6F894A89580936000F9
:103620000FBE90936000FFCF8F929F92AF92BF9298
:10363000EF92FF920F931F93CF93C0E0E82EF12CEF
:103640008C2F0E94590A4B015C0100E010E0D5016B
:10365000C401002E04C0B695A795979587950A9446
:10366000D2F780FD06C00F5F1F4F0331110579F7B8
:103670000AC0602F7C2F80E00E943606E816F9060B
:1036800091F781E004C0CF5FC530D1F680E0CF91E3
:103690001F910F91FF90EF90BF90AF909F908F90F0
:1036A0000895CF93C82F8CE20E94141B882321F029
:1036B0008C2FCF910C94141B80E0CF910895CF9361
:1036C0000E946B19811102C00E944519C5E6C150C4
:1036D00049F00E9461098FE39CE90197F1F700C06E
:1036E0000000F5CF89E20E94511B81110FC18AE2CF
:1036F0000E94511B81110E94451985E00E94511BB7
:1037000081110E94F21A0E94761980933E0287E08E
:103710000E94511B8823A9F18BE10E94511B882331
:1037200051F080913E0281FB222720F991E09227FF
:1037300090FB81F90EC08EE00E94511B882361F03E
:1037400080913E0282FB222720F991E0922790FB94
:1037500082F980933E0215C080E10E94511B909136
:103760003E02882341F093FB222720F981E0822743
:1037700080FB93F904C0892F809580FB90F990938A
:103780003E0280913E020E947A190E94881990E0C0
:103790009093B7028093B60280EE0E94511B88235B
:1037A00041F08091B602982F909590FB80F980931C
:1037B000B60289E30E94511B882359F08091B6021A
:1037C00081FB222720F991E0922790FB81F98093D9
:1037D000B60282EE0E94511B882359F08091B602F6
:1037E00082FB222720F991E0922790FB82F98093B7
:1037F000B60286EE0E94511B882359F08091B602D2
:1038000083FB222720F991E0922790FB83F9809394
:10381000B60283EE0E94511B882359F08091B602B4
:1038200084FB222720F991E0922790FB84F9809372
:10383000B60285E30E94511B882359F08091B6029D
:1038400085FB222720F991E0922790FB85F9809350
:10385000B60281E30E94511B882359F08091B60281
:1038600086FB222720F991E0922790FB86F980932E
:10387000B60281E10E94511B882359F08091B60263
:1038800087FB222720F991E0922790FB87F980930C
:10389000B6028091B6020E948C1987E20E94511BE9
:1038A000C82F8EE10E94511B8111C2608FE10E94DE
:1038B000511B8111C46080E20E94511B8111C860BC
:1038C00081E20E94511B8111C06182E20E94511B62
:1038D0008111C06283E20E94511B8111C06484E2A5
:1038E0000E94511B882311F0C06802C0CC2329F02C
:1038F0008C2F0E9483196C2F03C00E947F19682FA0
:1039000070E080E090E0CF910C94E316CF910895A1
:103910008091420280FF0BC06091050185E0689FA5
:10392000B001112475956795759567952BC081FF3A
:1039300009C06091050185E0689FB001112475956B
:10394000679520C082FF07C06091050185E0689FF0
:10395000B001112417C0909143029923D1F06091D6
:103960000401961788F72091050185E0289F9001B2
:103970001124929FA001939F500D112470E0CA0161
:103980000E94D2276038710540F46115710539F045
:1039900002C065E070E0862F08958FE7089581E00A
:1039A00008958091420280FF08C06091030170E099
:1039B000759567957595679521C081FF06C06091E3
:1039C000030170E07595679519C082FF04C060918E
:1039D000030170E010C0909143029923C1F06091FF
:1039E00002019617A0F780910301899FC00111245D
:1039F00070E00E94D2276038710528F461157105C6
:103A000021F0862F08958FE7089581E0089561E001
:103A100070E0F4CF803F21F40E94881C819504C09F
:103A2000813F29F40E94881C809346020895823FBA
:103A300021F40E94881C819504C0833F29F40E94D0
:103A4000881C809345020895893F19F40E94D11C77
:103A500005C08A3F31F40E94D11C819580934702B2
:103A600008958B3F21F40E94D11C819504C08C3FA6
:103A700029F40E94D11C809348020895843F21F4C8
:103A800080914402816017C0853F21F480914402F7
:103A9000826011C0863F21F48091440284600BC093
:103AA000873F21F480914402886005C0883F31F44B
:103AB0008091440280618093440208958D3F21F4F7
:103AC0008091420281600BC08E3F21F480914202BE
:103AD000826005C08F3F29F4809142028460809308
:103AE00042020895803F39F48091460287FF6CC0FE
:103AF0001092460269C0813F29F48091460218164F
:103B0000BCF362C090914502823F29F497FF5CC0EC
:103B10001092450259C0833F19F41916CCF354C0D2
:103B2000893F41F48091470218160CF04DC0109265
:103B300047024AC08A3F29F48091470287FF44C068
:103B4000F6CF8B3F39F48091480287FF3DC0109239
:103B500048023AC08C3F29F4809148021816BCF301
:103B600033C0843F21F4809144028E7F17C0853F8B
:103B700021F4809144028D7F11C0863F21F4809111
:103B800044028B7F0BC0873F21F480914402877FE2
:103B900005C0883F31F4809144028F7E80934402B7
:103BA00013C08D3F21F4809142028E7F0BC08E3F67
:103BB00021F4809142028D7F05C08F3F29F48091CE
:103BC00042028B7F809342028091450281110EC098
:103BD0008091460281110AC080914702811106C07E
:103BE00080914802811102C010924302089584E43A
:103BF00092E00E94910D0E94961A90934102809348
:103C0000400208951F93CF93DF93809140029091DB
:103C100041020E94A21AAC0190914302992321F023
:103C20002091060130E006C0209107018AE0289F1C
:103C3000900111244217530708F485C08091450272
:103C4000C0914602D091470210914802811107C0ED
:103C5000C11175C0D11173C0111171C074C09F3FE3
:103C600019F09F5F90934302181624F40E94881C59
:103C7000809345028091450287FF05C00E94881C01
:103C80008195809345021C1624F40E94881C809321
:103C900046028091460287FF05C00E94881C8195DC
:103CA0008093460260914502662331F1C09146023D
:103CB000CC2311F1062E000C770B880B990B0E9478
:103CC000C52623E333E343E35FE30E9429270E94F1
:103CD0008D26609345026C2FCC0F770B880B990BC8
:103CE0000E94C52623E333E343E35FE30E942927D1
:103CF0000E948D26609346021D1624F40E94D11C5A
:103D0000809347028091470287FF05C00E94D11C23
:103D1000819580934702111624F40E94D11C809350
:103D200048028091480287FF05C00E94D11C8195FE
:103D300080934802DF91CF911F910C94F71D9F3F14
:103D400009F08FCF97CFDF91CF911F910895E4E4D1
:103D5000F2E085E0DF011D928A95E9F710924302B7
:103D60001092420208950E946B19811102C00E94B4
:103D700045190E9491198093B802282F269530E0AA
:103D80002430310524F0817086608093B8028091E0
:103D9000B80280FF02C0869501C080E00C94050641
:103DA0002091B802822F8695482F50E0433051056C
:103DB00044F48F5F982F990F822F8170892B809305
:103DC000B8028091B80281608093B8020E94951970
:103DD0008091B80286950C9405068091B802982FC0
:103DE000969591F09158990F8170892B8093B80224
:103DF0008E7F91E009F490E08091B80290FB80F909
:103E00008093B8020E9495198091B80286950C940F
:103E100005068091B802982F909590FB80F98093C9
:103E2000B8020E9495198091B80280FF02C0869561
:103E300001C080E00C9405069091B802892F869508
:103E40008F5F8F779170843028F4880F892B80934F
:103E5000B80202C09093B8028091B8028E7F91E0C0
:103E600009F490E08091B80290FB80F98093B80249
:103E70000E9495198091B80286950C9405062091B0
:103E8000B802922F96958927982F990F822F8170CB
:103E9000892B8093B8028E7F91E009F490E08091A5
:103EA000B80290FB80F98093B8020E949519809126
:103EB000B80286950C9405068091690208950F93C7
:103EC0001F93CF93DF9300D01F92CDB7DEB78C0145
:103ED0000E94CD21823011F0843019F593E099834E
:103EE0001B830A839093E9008FEF9091E800815043
:103EF00095FD06C095ED9A95F1F700008111F5CF7B
:103F00008091E80085FF0DC040E050E063E070E084
:103F1000CE0101960E94EA218091E8008E7780937D
:103F2000E8000F900F900F90DF91CF911F910F91AC
:103F30000895CF93DF9300D01F92CDB7DEB72091C5
:103F4000BD02243031F522E02983805891099B83FA
:103F50008A8383E08093E9008FEF9091E80081509D
:103F600095FD06C095ED9A95F1F700008111F5CF0A
:103F70008091E80085FF0DC040E050E063E070E014
:103F8000CE0101960E94EA218091E8008E7780930D
:103F9000E8000F900F900F90DF91CF910895CF938D
:103FA000DF93EC010E94CD21823011F08430F9F4CE
:103FB00082E08093E9009FEF8091E800915085FDB9
:103FC00006C085ED8A95F1F700009111F5CF80913B
:103FD000E80085FF0CC040E050E065E070E0CE01F5
:103FE0000E94EA218091E8008E778093E800DF91BB
:103FF000CF910895CF93DF93EC010E94CD218230C1
:1040000019F0843009F047C0809112018823E1F053
:104010008091B60287FF18C084E08093E9008FEF9B
:104020009091E800815095FD06C095E19A95F1F7D1
:1040300000008111F5CF8091E80085FF2CC040E0A1
:1040400050E060E270E017C081E08093E9008FEFFC
:104050009091E800815095FD06C095ED9A95F1F795
:1040600000008111F5CF8091E80085FF14C040E089
:1040700050E068E070E0CE010E94EA218091E80003
:104080008E778093E80080E2FE01A9E4B2E001901F
:104090000D928A95E1F7DF91CF9108958091BC024E
:1040A000811109C00E947B230E94DD238091E200E0
:1040B00084608093E20008951092BC0208950895F0
:1040C00008950C945C1A42E061EC81E00E94F522B4
:1040D00042E061EC82E00E94F52242E061EC83E084
:1040E0000E94F52242E261EC84E00C94F52280917A
:1040F000BF02833009F455C030F4813071F0823052
:1041000009F48EC008958A3009F47AC08B3009F41E
:1041100060C0893009F09CC020C08091BE02813A05
:1041200009F096C08091E800877F8093E800809135
:10413000C2029091C302892B21F460E289E492E0EB
:1041400003C060E080E090E070E00E943522809142
:10415000E8008B778093E80008958091BE02813259
:1041600009F076C08091C2029091C302009719F0C5
:10417000039709F06DC08091E800877F8093E80085
:104180008091E80082FD05C08091BD028111F8CFC9
:104190005FC08091F100809369028091E8008B7785
:1041A00053C08091BE02813A09F052C08091C20290
:1041B0009091C302892B09F04BC08091E800877F62
:1041C0008093E8008091E80080FFFCCF809112018D
:1041D00036C08091BE028132D9F58091C2029091A1
:1041E000C302892BA9F58091E800877F8093E800BE
:1041F0000E942A238091C002809312010C941C1308
:104200008091BE02813221F58091E800877F809302
:10421000E8000E942A238091C10280936A020895D7
:104220008091BE02813AA1F48091E800877F80935B
:10423000E8008091E80080FFFCCF80916A028093C3
:10424000F1008091E8008E778093E8000C942A2397
:10425000089584B7877F84BF0FB6F894A89580919E
:104260006000886180936000109260000FBE80E85B
:1042700080936100109261000E94C90D0E947B230F
:104280000E94DD238091E20084608093E2007894B4
:104290000E9472260E94CB0D88E091E00E94750D6D
:1042A0008091BD02853069F40E94141A8091BB028E
:1042B0008823B1F30E94451A882391F30E94D421E8
:1042C000EFCF0E94D50DECCF292F332723303105B6
:1042D000C9F064F42130310581F02230310509F054
:1042E00043C08DE690E026EA34E042C02132310539
:1042F000F1F02232310541F137C082E190E023E153
:1043000035E036C099278130910541F08230910522
:1043100041F0892B49F5E2EAF4E005C0E6E8F4E073
:1043200002C0EAE7F4E0849190E09F0121C064308C
:104330007105D0F4660F771FFB01E95CFE4F208109
:10434000318189E090E014C06430710568F4FB01AC
:10435000EE0FFF1FE15DFE4F20813181FB01E55D26
:10436000FE4F808190E004C080E090E020E030E0EB
:10437000FA013183208308950895CF93C82F0E94B6
:10438000BC21C0936B02CF9108958091BD0284300F
:1043900011F081E0089582E0089580916B0281110F
:1043A00002C00C94C521089584E189BD86E189BDD0
:1043B00009B400FEFDCF8091D8008F7D8093D80096
:1043C0008091E00082608093E0008091E00081FDB8
:1043D000FCCF0895CF92DF92EF92FF920F931F933D
:1043E000CF93DF93EC018B016A010E944923811175
:1043F00033C0C114D10439F0F60180819181081BCA
:10440000190BC80FD91FE12CF12C0115110519F159
:104410008091E80085FD16C08091E8008E7780933A
:10442000E800C114D10449F0F60180819181E80EC1
:10443000F91EF182E08285E00FC00E9449238823A3
:1044400021F30AC089918093F10001501109FFEF17
:10445000EF1AFF0ADACF80E0DF91CF911F910F9121
:10446000FF90EF90DF90CF9008952091C40230919B
:10447000C5022617370748F06115710539F42091F8
:10448000E8002E772093E80001C0B90140E06115F3
:10449000710599F12091BD02222309F441C0253014
:1044A00009F440C02091E80023FD3EC02091E800BF
:1044B00022FD30C02091E80020FFE9CF2091F200DA
:1044C0003091F300FC01CF016115710559F02830DE
:1044D000310540F481918093F100615071092F5FA3
:1044E0003F4FF1CF41E02830310509F040E0209105
:1044F000E8002E772093E800CACF4111CBCF0AC045
:104500008091BD02882361F0853061F08091E800E0
:1045100083FD0AC08091E80082FFF2CF80E0089519
:1045200082E0089583E0089581E008952091C40217
:104530003091C5022617370748F06115710539F427
:104540002091E8002E772093E80001C0B901FC011A
:1045500020E06115710581F18091BD02882309F485
:104560003EC0853009F43DC08091E80083FD3BC02A
:104570008091E80082FD2DC08091E80080FFE9CFA6
:104580008091F2009091F3006115710559F0883027
:10459000910540F424912093F10031966150710906
:1045A0000196F2CF21E0089709F020E08091E80021
:1045B0008E778093E800CDCF2111CECF0AC08091B5
:1045C000BD02882361F0853061F08091E80083FDB1
:1045D0000AC08091E80082FFF2CF80E0089582E077
:1045E000089583E0089581E00895982F973058F555
:1045F0009093E900981739F07091EC002091ED004C
:104600005091F00003C0242F762F50E021FF19C0F5
:104610003091EB003E7F3093EB003091ED003D7F19
:104620003093ED003091EB0031603093EB007093EC
:10463000EC002093ED005093F0002091EE0027FF56
:1046400007C09F5FD3CF8F708093E90081E008950A
:1046500080E008958091BE0287FF11C08091E8003C
:1046600082FD05C08091BD028111F8CF11C08091FB
:10467000E8008B770BC08091BD02882349F08091C0
:10468000E80080FFF8CF8091E8008E778093E80003
:1046900008952091E4003091E50095E64091EC000A
:1046A000842F817040FF22C08091E80080FD1CC0F3
:1046B0008091BD02882391F0853091F08091EB00CC
:1046C00085FD10C04091E4005091E500421753076A
:1046D00029F39A01915011F784E0089582E008953A
:1046E00083E0089581E0089580E008954091E80016
:1046F00042FFDECF08950E94EC230E94F423E0EEF7
:10470000F0E0808181608083E8EDF0E080818F7748
:10471000808319BCA7EDB0E08C918E7F8C93808153
:104720008F7E80831092BC0208950F931F93CF93C6
:10473000DF930E94EC230E94F423C8EDD0E088812F
:104740008F77888388818068888388818F7D88833C
:10475000E7EDF0E080818068808319BC1092BD0293
:104760001092B9021092BB021092BA0200EE10E051
:10477000F80180818B7F808388818160888342E01B
:1047800060E080E00E94F522E1EEF0E080818E7F23
:104790008083E2EEF0E080818160808380818860A8
:1047A0008083F80180818E7F808388818061888307
:1047B000DF91CF911F910F910895E8EDF0E0808196
:1047C0008F7E8083E7EDF0E080818160808381E0EF
:1047D0008093BC020C949523E8EDF0E080818C7FFF
:1047E00080831092E20008951092DA001092E100A6
:1047F00008951F920F920FB60F9211240BB60F92CD
:104800002F933F934F935F936F937F938F939F93D8
:10481000AF93BF93EF93FF938091E10082FF0BC0B2
:104820008091E20082FF07C08091E1008B7F80933E
:10483000E1000E9471268091DA0080FF1FC0809104
:10484000D80080FF1BC08091DA008E7F8093DA0051
:104850008091D90080FF0DC084E189BD86E189BDCA
:1048600009B400FEFDCF81E08093BD020E944E207E
:1048700005C019BC1092BD020E945C208091E1002D
:1048800080FF19C08091E20080FF15C08091E20096
:104890008E7F8093E2008091E20080618093E2004D
:1048A0008091D80080628093D80019BC85E0809305
:1048B000BD020E9460208091E10084FF30C08091A1
:1048C000E20084FF2CC084E189BD86E189BD09B482
:1048D00000FEFDCF8091D8008F7D8093D80080911D
:1048E000E1008F7E8093E1008091E2008F7E8093D3
:1048F000E2008091E20081608093E2008091B90241
:10490000882311F084E007C08091E30087FD02C096
:1049100081E001C083E08093BD020E94612080910C
:10492000E10083FF29C08091E20083FF25C08091D0
:10493000E100877F8093E10082E08093BD021092C6
:10494000B9028091E1008E7F8093E1008091E200C6
:104950008E7F8093E2008091E20080618093E2008C
:1049600042E060E080E00E94F5228091F0008860E3
:104970008093F0000E945F20FF91EF91BF91AF9173
:104980009F918F917F916F915F914F913F912F9167
:104990000F900BBE0F900FBE0F901F9018951F9297
:1049A0000F920FB60F9211240BB60F922F933F93D5
:1049B0004F935F936F937F938F939F93AF93BF9327
:1049C000CF93DF93EF93FF93C091E900CF70809175
:1049D000EC00D82FD17080FDD0E81092E9008091D2
:1049E000F000877F8093F00078940E941725109242
:1049F000E9008091F00088608093F000CD2BCF70AB
:104A0000C093E900FF91EF91DF91CF91BF91AF91FA
:104A10009F918F917F916F915F914F913F912F91D6
:104A20000F900BBE0F900FBE0F901F9018951F9305
:104A3000CF93DF93CDB7DEB7AA970FB6F894DEBF5A
:104A40000FBECDBFEEEBF2E088E08E0F9091F1004B
:104A500091938E13FBCF0E9477208091E80083FF13
:104A600028C18091BE029091BF02492F50E04A3088
:104A7000510508F01EC1FA01EF56FF4F0C94E627CE
:104A8000803821F0823809F014C108C08091BA0240
:104A90009091BB02992389F082600FC08091C2027D
:104AA0008F70873008F005C18093E9008091EB009A
:104AB00085FB882780F91092E9009091E800977FA4
:104AC0009093E8008093F1001092F100D0C0282F5D
:104AD0002D7F09F0EEC0882319F0823061F0E9C023
:104AE0008091C002813009F0E4C0933009F080E089
:104AF0008093BB022EC08091C00281112AC0809198
:104B0000C2028F702FEF280F263008F0D2C080939A
:104B1000E9002091EB0020FF1CC0933021F480912C
:104B2000EB00806214C09091EB0090619093EB00D9
:104B300021E030E0A90102C0440F551F8A95E2F739
:104B40004093EA001092EA008091EB008860809325
:104B5000EB001092E9008091E800877F8093E800E5
:104B60000E942A23A6C08111A4C01091C0021F7701
:104B70008091E3008078812B8093E3008091E800AE
:104B8000877F8093E8000E942A238091E80080FFBD
:104B9000FCCF8091E30080688093E300111102C094
:104BA00082E001C083E08093BD0283C080588230E0
:104BB00008F07FC08091C0029091C1028C3D53E00B
:104BC000950779F583E08A838AE289834FB7F89461
:104BD000DE01139620E03EE051E2E32FF0E0509337
:104BE0005700E49120FF03C0E295EF703F5FEF7044
:104BF0008E2F90E0EA3010F0C79601C0C0968D93DA
:104C00009D932F5F243149F74FBF8091E800877F44
:104C10008093E8006AE270E0CE0101960E9435229E
:104C200015C06091C2027091C302AE014F5F5F4F29
:104C30000E946421BC01892BE1F19091E800977FEB
:104C40009093E80089819A810E9496228091E800E1
:104C50008B778093E8002DC0803859F58091E8006B
:104C6000877F8093E8008091B9028093F100809162
:104C7000E8008E7773CF81111CC09091C0029230F2
:104C8000C0F48091E800877F8093E8009093B90298
:104C90000E942A238091B902811106C08091E3000D
:104CA00087FD02C081E001C084E08093BD020E94C4
:104CB00063208091E80083FF0AC08091E800877F2D
:104CC0008093E8008091EB0080628093EB00AA96CD
:104CD0000FB6F894DEBF0FBECDBFDF91CF911F910D
:104CE00008950895CF938091BD028823A1F0C091CB
:104CF000E900CF709091EC00892F817090FD80E8E1
:104D0000C82B1092E9008091E80083FD0E941725CE
:104D1000CF70C093E900CF9108950E9494266894C3
:104D2000B1110C94232708950E94082788F09F57FB
:104D300098F0B92F9927B751B0F0E1F0660F771FBF
:104D4000881F991F1AF0BA95C9F714C0B13091F0B5
:104D50000E942227B1E008950C942227672F782F14
:104D60008827B85F39F0B93FCCF38695779567957A
:104D7000B395D9F73EF490958095709561957F4FE6
:104D80008F4F9F4F0895E89409C097FB3EF490958C
:104D90008095709561957F4F8F4F9F4F9923A9F014
:104DA000F92F96E9BB279395F695879577956795A3
:104DB000B795F111F8CFFAF4BB0F11F460FF1BC0E7
:104DC0006F5F7F4F8F4F9F4F16C0882311F096E97A
:104DD00011C0772321F09EE8872F762F05C0662328
:104DE00071F096E8862F70E060E02AF09A95660FE1
:104DF000771F881FDAF7880F9695879597F908959A
:104E000057FD9058440F551F59F05F3F71F047957B
:104E1000880F97FB991F61F09F3F79F08795089560
:104E2000121613061406551FF2CF4695F1DF08C07F
:104E3000161617061806991FF1CF8695710561059C
:104E400008940895E894BB2766277727CB0197F944
:104E500008950E943C270C94AD270E949F2738F0AC
:104E60000E94A62720F0952311F00C9496270C940D
:104E70009C2711240C9423270E94002770F3959FF0
:104E8000C1F3950F50E0551F629FF001729FBB2741
:104E9000F00DB11D639FAA27F00DB11DAA1F649FDD
:104EA0006627B00DA11D661F829F2227B00DA11D90
:104EB000621F739FB00DA11D621F839FA00D611D16
:104EC000221F749F3327A00D611D231F849F600D37
:104ED000211D822F762F6A2F11249F5750409AF060
:104EE000F1F088234AF0EE0FFF1FBB1F661F771FEC
:104EF000881F91505040A9F79E3F510580F00C94B7
:104F000096270C9423275F3FE4F3983ED4F38695CD
:104F100077956795B795F795E7959F5FC1F7FE2B56
:104F2000880F911D9695879597F9089597F99F6732
:104F300080E870E060E008959FEF80EC0895002421
:104F40000A941616170618060906089500240A94EE
:104F500012161306140605060895092E0394000C74
:104F600011F4882352F0BB0F40F4BF2B11F460FF03
:104F700004C06F5F7F4F8F4F9F4F0895AA1BBB1BCD
:104F800051E107C0AA1FBB1FA617B70710F0A61B49
:104F9000B70B881F991F5A95A9F780959095BC016A
:104FA000CD01089597FB072E16F4009407D077FDE6
:104FB00009D00E94BE2707FC05D03EF4909581954C
:104FC0009F4F0895709561957F4F0895EE0FFF1FD5
:104FD0000024001C0BBE0790F691E02D0994F9996E
:104FE000FECF92BD81BDF89A992780B50895A6E1BC
:104FF000B0E044E050E00C942928A8E1B0E042E0A1
:1050000050E00C942928262FF999FECF92BD81BD3E
:10501000F89A019700B4021639F01FBA20BD0FB6F6
:10502000F894FA9AF99A0FBE08950396272F0E94D2
:1050300004280E940328252F0E940428242F0C9462
:1050400004280196272F0E9404280C940328DC01D1
:10505000CB01FC01F999FECF06C0F2BDE1BDF89A83
:10506000319600B40D9241505040B8F70895F8942D
:02507000FFCF70
:105072001B022808140A321E5C1FFA1FCF1F991F39
:105082005F1F010201F5F4C6C7C5C4379091929320
:105092009495969735C0F3F2F1F000404D3639E120
:1050A2000594055E052505B804D104EA040305004C
:00000001FF
